{"abi":[{"type":"constructor","inputs":[],"stateMutability":"nonpayable"},{"type":"function","name":"addLiquidity","inputs":[{"name":"token_address","type":"address","internalType":"address"},{"name":"amount","type":"uint256","internalType":"uint256"}],"outputs":[],"stateMutability":"nonpayable"},{"type":"function","name":"approve","inputs":[{"name":"spender","type":"address","internalType":"address"},{"name":"amount","type":"uint256","internalType":"uint256"}],"outputs":[],"stateMutability":"nonpayable"},{"type":"function","name":"balanceOf","inputs":[{"name":"token","type":"address","internalType":"address"},{"name":"account","type":"address","internalType":"address"}],"outputs":[{"name":"","type":"uint256","internalType":"uint256"}],"stateMutability":"view"},{"type":"function","name":"getSwapPrice","inputs":[{"name":"from","type":"address","internalType":"address"},{"name":"to","type":"address","internalType":"address"},{"name":"amount","type":"uint256","internalType":"uint256"}],"outputs":[{"name":"","type":"uint256","internalType":"uint256"}],"stateMutability":"view"},{"type":"function","name":"owner","inputs":[],"outputs":[{"name":"","type":"address","internalType":"address"}],"stateMutability":"view"},{"type":"function","name":"renounceOwnership","inputs":[],"outputs":[],"stateMutability":"nonpayable"},{"type":"function","name":"setTokens","inputs":[{"name":"_token1","type":"address","internalType":"address"},{"name":"_token2","type":"address","internalType":"address"}],"outputs":[],"stateMutability":"nonpayable"},{"type":"function","name":"swap","inputs":[{"name":"from","type":"address","internalType":"address"},{"name":"to","type":"address","internalType":"address"},{"name":"amount","type":"uint256","internalType":"uint256"}],"outputs":[],"stateMutability":"nonpayable"},{"type":"function","name":"token1","inputs":[],"outputs":[{"name":"","type":"address","internalType":"address"}],"stateMutability":"view"},{"type":"function","name":"token2","inputs":[],"outputs":[{"name":"","type":"address","internalType":"address"}],"stateMutability":"view"},{"type":"function","name":"transferOwnership","inputs":[{"name":"newOwner","type":"address","internalType":"address"}],"outputs":[],"stateMutability":"nonpayable"},{"type":"event","name":"OwnershipTransferred","inputs":[{"name":"previousOwner","type":"address","indexed":true,"internalType":"address"},{"name":"newOwner","type":"address","indexed":true,"internalType":"address"}],"anonymous":false}],"bytecode":{"object":"0x6080604052348015600f57600080fd5b50601733601b565b606b565b600080546001600160a01b038381166001600160a01b0319831681178455604051919092169283917f8be0079c531659141344cd1fd0a4f28419497f9722a3daafe3b4186f6b6457e09190a35050565b610a2f8061007a6000396000f3fe608060405234801561001057600080fd5b50600436106100a95760003560e01c8063bfd7e00d11610071578063bfd7e00d1461011f578063cbc7854e14610140578063d21220a714610153578063df791e5014610166578063f2fde38b14610179578063f7888aec1461018c57600080fd5b8063095ea7b3146100ae57806325be124e146100c357806356688700146100f3578063715018a6146101065780638da5cb5b1461010e575b600080fd5b6100c16100bc366004610897565b61019f565b005b6002546100d6906001600160a01b031681565b6040516001600160a01b0390911681526020015b60405180910390f35b6100c1610101366004610897565b61026f565b6100c16102ef565b6000546001600160a01b03166100d6565b61013261012d3660046108c1565b610303565b6040519081526020016100ea565b6100c161014e3660046108fe565b6103f2565b6001546100d6906001600160a01b031681565b6100c16101743660046108c1565b610428565b6100c1610187366004610931565b6106e1565b61013261019a3660046108fe565b61075a565b60015460405163e1f21c6760e01b81526001600160a01b039091169063e1f21c67906101d39033908690869060040161094c565b600060405180830381600087803b1580156101ed57600080fd5b505af1158015610201573d6000803e3d6000fd5b505060025460405163e1f21c6760e01b81526001600160a01b03909116925063e1f21c6791506102399033908690869060040161094c565b600060405180830381600087803b15801561025357600080fd5b505af1158015610267573d6000803e3d6000fd5b505050505050565b6102776107d1565b6040516323b872dd60e01b81526001600160a01b038316906323b872dd906102a79033903090869060040161094c565b6020604051808303816000875af11580156102c6573d6000803e3d6000fd5b505050506040513d601f19601f820116820180604052508101906102ea9190610970565b505050565b6102f76107d1565b610301600061082b565b565b6040516370a0823160e01b81523060048201526000906001600160a01b038516906370a0823190602401602060405180830381865afa15801561034a573d6000803e3d6000fd5b505050506040513d601f19601f8201168201806040525081019061036e9190610999565b6040516370a0823160e01b81523060048201526001600160a01b038516906370a0823190602401602060405180830381865afa1580156103b2573d6000803e3d6000fd5b505050506040513d601f19601f820116820180604052508101906103d69190610999565b6103e090846109b2565b6103ea91906109d7565b949350505050565b6103fa6107d1565b600180546001600160a01b039384166001600160a01b03199182161790915560028054929093169116179055565b6001546001600160a01b03848116911614801561045257506002546001600160a01b038381169116145b8061048257506002546001600160a01b03848116911614801561048257506001546001600160a01b038381169116145b6104c45760405162461bcd60e51b815260206004820152600e60248201526d496e76616c696420746f6b656e7360901b60448201526064015b60405180910390fd5b6040516370a0823160e01b815233600482015281906001600160a01b038516906370a0823190602401602060405180830381865afa15801561050a573d6000803e3d6000fd5b505050506040513d601f19601f8201168201806040525081019061052e9190610999565b10156105715760405162461bcd60e51b815260206004820152601260248201527104e6f7420656e6f75676820746f20737761760741b60448201526064016104bb565b600061057e848484610303565b6040516323b872dd60e01b81529091506001600160a01b038516906323b872dd906105b19033903090879060040161094c565b6020604051808303816000875af11580156105d0573d6000803e3d6000fd5b505050506040513d601f19601f820116820180604052508101906105f49190610970565b5060405163095ea7b360e01b8152306004820152602481018290526001600160a01b0384169063095ea7b3906044016020604051808303816000875af1158015610642573d6000803e3d6000fd5b505050506040513d601f19601f820116820180604052508101906106669190610970565b506040516323b872dd60e01b81526001600160a01b038416906323b872dd906106979030903390869060040161094c565b6020604051808303816000875af11580156106b6573d6000803e3d6000fd5b505050506040513d601f19601f820116820180604052508101906106da9190610970565b5050505050565b6106e96107d1565b6001600160a01b03811661074e5760405162461bcd60e51b815260206004820152602660248201527f4f776e61626c653a206e6577206f776e657220697320746865207a65726f206160448201526564647265737360d01b60648201526084016104bb565b6107578161082b565b50565b6040516370a0823160e01b81526001600160a01b038281166004830152600091908416906370a0823190602401602060405180830381865afa1580156107a4573d6000803e3d6000fd5b505050506040513d601f19601f820116820180604052508101906107c89190610999565b90505b92915050565b6000546001600160a01b031633146103015760405162461bcd60e51b815260206004820181905260248201527f4f776e61626c653a2063616c6c6572206973206e6f7420746865206f776e657260448201526064016104bb565b600080546001600160a01b038381166001600160a01b0319831681178455604051919092169283917f8be0079c531659141344cd1fd0a4f28419497f9722a3daafe3b4186f6b6457e09190a35050565b80356001600160a01b038116811461089257600080fd5b919050565b600080604083850312156108aa57600080fd5b6108b38361087b565b946020939093013593505050565b6000806000606084860312156108d657600080fd5b6108df8461087b565b92506108ed6020850161087b565b929592945050506040919091013590565b6000806040838503121561091157600080fd5b61091a8361087b565b91506109286020840161087b565b90509250929050565b60006020828403121561094357600080fd5b6107c88261087b565b6001600160a01b039384168152919092166020820152604081019190915260600190565b60006020828403121561098257600080fd5b8151801515811461099257600080fd5b9392505050565b6000602082840312156109ab57600080fd5b5051919050565b80820281158282048414176107cb57634e487b7160e01b600052601160045260246000fd5b6000826109f457634e487b7160e01b600052601260045260246000fd5b50049056fea26469706673582212208249d0f223fc43b07119156bdc8362763bdc827fa344738e566e5b48b973105964736f6c634300081b0033","linkReferences":{}},"methodIdentifiers":{"addLiquidity(address,uint256)":"56688700","approve(address,uint256)":"095ea7b3","balanceOf(address,address)":"f7888aec","getSwapPrice(address,address,uint256)":"bfd7e00d","owner()":"8da5cb5b","renounceOwnership()":"715018a6","setTokens(address,address)":"cbc7854e","swap(address,address,uint256)":"df791e50","token1()":"d21220a7","token2()":"25be124e","transferOwnership(address)":"f2fde38b"},"id":32}