{"abi":[{"type":"constructor","inputs":[{"name":"dexInstance","type":"address","internalType":"address"},{"name":"name","type":"string","internalType":"string"},{"name":"symbol","type":"string","internalType":"string"},{"name":"initialSupply","type":"uint256","internalType":"uint256"}],"stateMutability":"nonpayable"},{"type":"function","name":"allowance","inputs":[{"name":"owner","type":"address","internalType":"address"},{"name":"spender","type":"address","internalType":"address"}],"outputs":[{"name":"","type":"uint256","internalType":"uint256"}],"stateMutability":"view"},{"type":"function","name":"approve","inputs":[{"name":"spender","type":"address","internalType":"address"},{"name":"amount","type":"uint256","internalType":"uint256"}],"outputs":[{"name":"","type":"bool","internalType":"bool"}],"stateMutability":"nonpayable"},{"type":"function","name":"approve","inputs":[{"name":"owner","type":"address","internalType":"address"},{"name":"spender","type":"address","internalType":"address"},{"name":"amount","type":"uint256","internalType":"uint256"}],"outputs":[],"stateMutability":"nonpayable"},{"type":"function","name":"balanceOf","inputs":[{"name":"account","type":"address","internalType":"address"}],"outputs":[{"name":"","type":"uint256","internalType":"uint256"}],"stateMutability":"view"},{"type":"function","name":"decimals","inputs":[],"outputs":[{"name":"","type":"uint8","internalType":"uint8"}],"stateMutability":"view"},{"type":"function","name":"decreaseAllowance","inputs":[{"name":"spender","type":"address","internalType":"address"},{"name":"subtractedValue","type":"uint256","internalType":"uint256"}],"outputs":[{"name":"","type":"bool","internalType":"bool"}],"stateMutability":"nonpayable"},{"type":"function","name":"increaseAllowance","inputs":[{"name":"spender","type":"address","internalType":"address"},{"name":"addedValue","type":"uint256","internalType":"uint256"}],"outputs":[{"name":"","type":"bool","internalType":"bool"}],"stateMutability":"nonpayable"},{"type":"function","name":"name","inputs":[],"outputs":[{"name":"","type":"string","internalType":"string"}],"stateMutability":"view"},{"type":"function","name":"symbol","inputs":[],"outputs":[{"name":"","type":"string","internalType":"string"}],"stateMutability":"view"},{"type":"function","name":"totalSupply","inputs":[],"outputs":[{"name":"","type":"uint256","internalType":"uint256"}],"stateMutability":"view"},{"type":"function","name":"transfer","inputs":[{"name":"to","type":"address","internalType":"address"},{"name":"amount","type":"uint256","internalType":"uint256"}],"outputs":[{"name":"","type":"bool","internalType":"bool"}],"stateMutability":"nonpayable"},{"type":"function","name":"transferFrom","inputs":[{"name":"from","type":"address","internalType":"address"},{"name":"to","type":"address","internalType":"address"},{"name":"amount","type":"uint256","internalType":"uint256"}],"outputs":[{"name":"","type":"bool","internalType":"bool"}],"stateMutability":"nonpayable"},{"type":"event","name":"Approval","inputs":[{"name":"owner","type":"address","indexed":true,"internalType":"address"},{"name":"spender","type":"address","indexed":true,"internalType":"address"},{"name":"value","type":"uint256","indexed":false,"internalType":"uint256"}],"anonymous":false},{"type":"event","name":"Transfer","inputs":[{"name":"from","type":"address","indexed":true,"internalType":"address"},{"name":"to","type":"address","indexed":true,"internalType":"address"},{"name":"value","type":"uint256","indexed":false,"internalType":"uint256"}],"anonymous":false}],"bytecode":{"object":"0x608060405234801561001057600080fd5b50604051610ce6380380610ce683398101604081905261002f91610207565b8282600361003d838261031f565b50600461004a828261031f565b50505061005d338261008660201b60201c565b5050600580546001600160a01b0319166001600160a01b03939093169290921790915550610404565b6001600160a01b0382166100e05760405162461bcd60e51b815260206004820152601f60248201527f45524332303a206d696e7420746f20746865207a65726f206164647265737300604482015260640160405180910390fd5b80600260008282546100f291906103dd565b90915550506001600160a01b038216600081815260208181526040808320805486019055518481527fddf252ad1be2c89b69c2b068fc378daa952ba7f163c4a11628f55a4df523b3ef910160405180910390a35050565b505050565b634e487b7160e01b600052604160045260246000fd5b600082601f83011261017557600080fd5b81516001600160401b0381111561018e5761018e61014e565b604051601f8201601f19908116603f011681016001600160401b03811182821017156101bc576101bc61014e565b6040528181528382016020018510156101d457600080fd5b60005b828110156101f3576020818601810151838301820152016101d7565b506000918101602001919091529392505050565b6000806000806080858703121561021d57600080fd5b84516001600160a01b038116811461023457600080fd5b60208601519094506001600160401b0381111561025057600080fd5b61025c87828801610164565b604087015190945090506001600160401b0381111561027a57600080fd5b61028687828801610164565b606096909601519497939650505050565b600181811c908216806102ab57607f821691505b6020821081036102cb57634e487b7160e01b600052602260045260246000fd5b50919050565b601f82111561014957806000526020600020601f840160051c810160208510156102f85750805b601f840160051c820191505b818110156103185760008155600101610304565b5050505050565b81516001600160401b038111156103385761033861014e565b61034c816103468454610297565b846102d1565b6020601f82116001811461038057600083156103685750848201515b600019600385901b1c1916600184901b178455610318565b600084815260208120601f198516915b828110156103b05787850151825560209485019460019092019101610390565b50848210156103ce5786840151600019600387901b60f8161c191681555b50505050600190811b01905550565b808201808211156103fe57634e487b7160e01b600052601160045260246000fd5b92915050565b6108d3806104136000396000f3fe608060405234801561001057600080fd5b50600436106100b45760003560e01c806370a082311161007157806370a082311461014157806395d89b411461016a578063a457c2d714610172578063a9059cbb14610185578063dd62ed3e14610198578063e1f21c67146101ab57600080fd5b806306fdde03146100b9578063095ea7b3146100d757806318160ddd146100fa57806323b872dd1461010c578063313ce5671461011f578063395093511461012e575b600080fd5b6100c16101c0565b6040516100ce919061071c565b60405180910390f35b6100ea6100e5366004610786565b610252565b60405190151581526020016100ce565b6002545b6040519081526020016100ce565b6100ea61011a3660046107b0565b61026c565b604051601281526020016100ce565b6100ea61013c366004610786565b610290565b6100fe61014f3660046107ed565b6001600160a01b031660009081526020819052604090205490565b6100c16102b2565b6100ea610180366004610786565b6102c1565b6100ea610193366004610786565b610341565b6100fe6101a636600461080f565b61034f565b6101be6101b93660046107b0565b61037a565b005b6060600380546101cf90610842565b80601f01602080910402602001604051908101604052809291908181526020018280546101fb90610842565b80156102485780601f1061021d57610100808354040283529160200191610248565b820191906000526020600020905b81548152906001019060200180831161022b57829003601f168201915b5050505050905090565b6000336102608185856103da565b60019150505b92915050565b60003361027a8582856104fe565b610285858585610578565b506001949350505050565b6000336102608185856102a3838361034f565b6102ad919061087c565b6103da565b6060600480546101cf90610842565b600033816102cf828661034f565b9050838110156103345760405162461bcd60e51b815260206004820152602560248201527f45524332303a2064656372656173656420616c6c6f77616e63652062656c6f77604482015264207a65726f60d81b60648201526084015b60405180910390fd5b61028582868684036103da565b600033610260818585610578565b6001600160a01b03918216600090815260016020908152604080832093909416825291909152205490565b6005546001600160a01b03908116908416036103ca5760405162461bcd60e51b815260206004820152600f60248201526e24b73b30b634b220b8383937bb32b960891b604482015260640161032b565b6103d58383836103da565b505050565b6001600160a01b03831661043c5760405162461bcd60e51b8152602060048201526024808201527f45524332303a20617070726f76652066726f6d20746865207a65726f206164646044820152637265737360e01b606482015260840161032b565b6001600160a01b03821661049d5760405162461bcd60e51b815260206004820152602260248201527f45524332303a20617070726f766520746f20746865207a65726f206164647265604482015261737360f01b606482015260840161032b565b6001600160a01b0383811660008181526001602090815260408083209487168084529482529182902085905590518481527f8c5be1e5ebec7d5bd14f71427d1e84f3dd0314c0f7b2291e5b200ac8c7c3b925910160405180910390a3505050565b600061050a848461034f565b9050600019811461057257818110156105655760405162461bcd60e51b815260206004820152601d60248201527f45524332303a20696e73756666696369656e7420616c6c6f77616e6365000000604482015260640161032b565b61057284848484036103da565b50505050565b6001600160a01b0383166105dc5760405162461bcd60e51b815260206004820152602560248201527f45524332303a207472616e736665722066726f6d20746865207a65726f206164604482015264647265737360d81b606482015260840161032b565b6001600160a01b03821661063e5760405162461bcd60e51b815260206004820152602360248201527f45524332303a207472616e7366657220746f20746865207a65726f206164647260448201526265737360e81b606482015260840161032b565b6001600160a01b038316600090815260208190526040902054818110156106b65760405162461bcd60e51b815260206004820152602660248201527f45524332303a207472616e7366657220616d6f756e7420657863656564732062604482015265616c616e636560d01b606482015260840161032b565b6001600160a01b03848116600081815260208181526040808320878703905593871680835291849020805487019055925185815290927fddf252ad1be2c89b69c2b068fc378daa952ba7f163c4a11628f55a4df523b3ef910160405180910390a3610572565b602081526000825180602084015260005b8181101561074a576020818601810151604086840101520161072d565b506000604082850101526040601f19601f83011684010191505092915050565b80356001600160a01b038116811461078157600080fd5b919050565b6000806040838503121561079957600080fd5b6107a28361076a565b946020939093013593505050565b6000806000606084860312156107c557600080fd5b6107ce8461076a565b92506107dc6020850161076a565b929592945050506040919091013590565b6000602082840312156107ff57600080fd5b6108088261076a565b9392505050565b6000806040838503121561082257600080fd5b61082b8361076a565b91506108396020840161076a565b90509250929050565b600181811c9082168061085657607f821691505b60208210810361087657634e487b7160e01b600052602260045260246000fd5b50919050565b8082018082111561026657634e487b7160e01b600052601160045260246000fdfea26469706673582212201208e32a0534b289df377710894e89b46000a1abd0db01b119853cfc46f6618d64736f6c634300081b0033","linkReferences":{}},"methodIdentifiers":{"allowance(address,address)":"dd62ed3e","approve(address,address,uint256)":"e1f21c67","approve(address,uint256)":"095ea7b3","balanceOf(address)":"70a08231","decimals()":"313ce567","decreaseAllowance(address,uint256)":"a457c2d7","increaseAllowance(address,uint256)":"39509351","name()":"06fdde03","symbol()":"95d89b41","totalSupply()":"18160ddd","transfer(address,uint256)":"a9059cbb","transferFrom(address,address,uint256)":"23b872dd"},"id":29}