{"abi":[{"type":"constructor","inputs":[{"name":"_owner","type":"address","internalType":"address"}],"stateMutability":"nonpayable"},{"type":"function","name":"owner","inputs":[],"outputs":[{"name":"","type":"address","internalType":"address"}],"stateMutability":"view"},{"type":"function","name":"pwn","inputs":[],"outputs":[],"stateMutability":"nonpayable"}],"bytecode":{"object":"0x6080604052348015600f57600080fd5b5060405161013f38038061013f833981016040819052602c916050565b600080546001600160a01b0319166001600160a01b0392909216919091179055607e565b600060208284031215606157600080fd5b81516001600160a01b0381168114607757600080fd5b9392505050565b60b38061008c6000396000f3fe6080604052348015600f57600080fd5b506004361060325760003560e01c80638da5cb5b146037578063dd365b8b146065575b600080fd5b6000546049906001600160a01b031681565b6040516001600160a01b03909116815260200160405180910390f35b607b600080546001600160a01b03191633179055565b00fea2646970667358221220b91e77d62ce733b7cab1d89b49630879d89cc742663f0282d864594fbee6c50864736f6c634300081b0033","linkReferences":{}},"methodIdentifiers":{"owner()":"8da5cb5b","pwn()":"dd365b8b"},"id":33}