{"abi":[{"type":"constructor","inputs":[{"name":"_name","type":"string","internalType":"string"},{"name":"_creator","type":"address","internalType":"address"},{"name":"_initialSupply","type":"uint256","internalType":"uint256"}],"stateMutability":"nonpayable"},{"type":"receive","stateMutability":"payable"},{"type":"function","name":"balances","inputs":[{"name":"","type":"address","internalType":"address"}],"outputs":[{"name":"","type":"uint256","internalType":"uint256"}],"stateMutability":"view"},{"type":"function","name":"destroy","inputs":[{"name":"_to","type":"address","internalType":"address payable"}],"outputs":[],"stateMutability":"nonpayable"},{"type":"function","name":"name","inputs":[],"outputs":[{"name":"","type":"string","internalType":"string"}],"stateMutability":"view"},{"type":"function","name":"transfer","inputs":[{"name":"_to","type":"address","internalType":"address"},{"name":"_amount","type":"uint256","internalType":"uint256"}],"outputs":[],"stateMutability":"nonpayable"}],"bytecode":{"object":"0x608060405234801561001057600080fd5b5060405161064538038061064583398101604081905261002f9161008e565b600061003b8482610200565b506001600160a01b03909116600090815260016020526040902055506102be565b634e487b7160e01b600052604160045260246000fd5b80516001600160a01b038116811461008957600080fd5b919050565b6000806000606084860312156100a357600080fd5b83516001600160401b038111156100b957600080fd5b8401601f810186136100ca57600080fd5b80516001600160401b038111156100e3576100e361005c565b604051601f8201601f19908116603f011681016001600160401b03811182821017156101115761011161005c565b60405281815282820160200188101561012957600080fd5b60005b828110156101485760208185018101518383018201520161012c565b5060006020838301015280955050505061016460208501610072565b6040949094015192959394509192915050565b600181811c9082168061018b57607f821691505b6020821081036101ab57634e487b7160e01b600052602260045260246000fd5b50919050565b601f8211156101fb57806000526020600020601f840160051c810160208510156101d85750805b601f840160051c820191505b818110156101f857600081556001016101e4565b50505b505050565b81516001600160401b038111156102195761021961005c565b61022d816102278454610177565b846101b1565b6020601f82116001811461026157600083156102495750848201515b600019600385901b1c1916600184901b1784556101f8565b600084815260208120601f198516915b828110156102915787850151825560209485019460019092019101610271565b50848210156102af5786840151600019600387901b60f8161c191681555b50505050600190811b01905550565b610378806102cd6000396000f3fe6080604052600436106100425760003560e01c8062f55d9d1461006b57806306fdde031461008d57806327e235e3146100b8578063a9059cbb146100f357600080fd5b366100665761005234600a610222565b336000908152600160205260409020819055005b600080fd5b34801561007757600080fd5b5061008b610086366004610257565b610113565b005b34801561009957600080fd5b506100a261011f565b6040516100af919061027b565b60405180910390f35b3480156100c457600080fd5b506100e56100d3366004610257565b60016020526000908152604090205481565b6040519081526020016100af565b3480156100ff57600080fd5b5061008b61010e3660046102c9565b6101ad565b806001600160a01b0316ff5b6000805461012c906102f5565b80601f0160208091040260200160405190810160405280929190818152602001828054610158906102f5565b80156101a55780601f1061017a576101008083540402835291602001916101a5565b820191906000526020600020905b81548152906001019060200180831161018857829003601f168201915b505050505081565b336000908152600160205260409020548111156101c957600080fd5b336000908152600160205260409020546101e490829061032f565b33600090815260016020526040808220929092556001600160a01b0393909316835290912055565b634e487b7160e01b600052601160045260246000fd5b80820281158282048414176102395761023961020c565b92915050565b6001600160a01b038116811461025457600080fd5b50565b60006020828403121561026957600080fd5b81356102748161023f565b9392505050565b602081526000825180602084015260005b818110156102a9576020818601810151604086840101520161028c565b506000604082850101526040601f19601f83011684010191505092915050565b600080604083850312156102dc57600080fd5b82356102e78161023f565b946020939093013593505050565b600181811c9082168061030957607f821691505b60208210810361032957634e487b7160e01b600052602260045260246000fd5b50919050565b818103818111156102395761023961020c56fea26469706673582212201862e2af887ef1a65dab19fe4105a4415564ee3cdb687e7d7f5a422b787d0a3764736f6c634300081b0033","linkReferences":{}},"methodIdentifiers":{"balances(address)":"27e235e3","destroy(address)":"00f55d9d","name()":"06fdde03","transfer(address,uint256)":"a9059cbb"},"id":51}