{"abi":[{"type":"constructor","inputs":[{"name":"_admin","type":"address","internalType":"address"},{"name":"_implementation","type":"address","internalType":"address"},{"name":"_initData","type":"bytes","internalType":"bytes"}],"stateMutability":"nonpayable"},{"type":"fallback","stateMutability":"payable"},{"type":"receive","stateMutability":"payable"},{"type":"function","name":"admin","inputs":[],"outputs":[{"name":"","type":"address","internalType":"address"}],"stateMutability":"view"},{"type":"function","name":"approveNewAdmin","inputs":[{"name":"_expectedAdmin","type":"address","internalType":"address"}],"outputs":[],"stateMutability":"nonpayable"},{"type":"function","name":"pendingAdmin","inputs":[],"outputs":[{"name":"","type":"address","internalType":"address"}],"stateMutability":"view"},{"type":"function","name":"proposeNewAdmin","inputs":[{"name":"_newAdmin","type":"address","internalType":"address"}],"outputs":[],"stateMutability":"nonpayable"},{"type":"function","name":"upgradeTo","inputs":[{"name":"_newImplementation","type":"address","internalType":"address"}],"outputs":[],"stateMutability":"nonpayable"},{"type":"event","name":"Upgraded","inputs":[{"name":"implementation","type":"address","indexed":true,"internalType":"address"}],"anonymous":false}],"bytecode":{"object":"0x608060405234801561001057600080fd5b5060405161079b38038061079b83398101604081905261002f91610206565b818161005c60017f360894a13ba1a3210667c828492db98dca3e2076cc3735a920a3ca505d382bbd6102dc565b60008051602061077b8339815191521461007857610078610303565b6100818261011d565b8051156100f2576000826001600160a01b0316826040516100a29190610319565b600060405180830381855af49150503d80600081146100dd576040519150601f19603f3d011682016040523d82523d6000602084013e6100e2565b606091505b50509050806100f057600080fd5b505b5050600180546001600160a01b0319166001600160a01b039490941693909317909255506103359050565b6001600160a01b0381163b61019e5760405162461bcd60e51b815260206004820152603660248201527f5570677261646561626c6550726f78793a206e657720696d706c656d656e746160448201527f74696f6e206973206e6f74206120636f6e747261637400000000000000000000606482015260840160405180910390fd5b60008051602061077b83398151915255565b80516001600160a01b03811681146101c757600080fd5b919050565b634e487b7160e01b600052604160045260246000fd5b60005b838110156101fd5781810151838201526020016101e5565b50506000910152565b60008060006060848603121561021b57600080fd5b610224846101b0565b9250610232602085016101b0565b60408501519092506001600160401b0381111561024e57600080fd5b8401601f8101861361025f57600080fd5b80516001600160401b03811115610278576102786101cc565b604051601f8201601f19908116603f011681016001600160401b03811182821017156102a6576102a66101cc565b6040528181528282016020018810156102be57600080fd5b6102cf8260208301602086016101e2565b8093505050509250925092565b818103818111156102fd57634e487b7160e01b600052601160045260246000fd5b92915050565b634e487b7160e01b600052600160045260246000fd5b6000825161032b8184602087016101e2565b9190910192915050565b610437806103446000396000f3fe60806040526004361061004e5760003560e01c806326782247146100655780633659cfe6146100a1578063a02fcc0a146100c1578063a6376746146100e1578063f851a4401461011e5761005d565b3661005d5761005b61013e565b005b61005b61013e565b34801561007157600080fd5b50600054610085906001600160a01b031681565b6040516001600160a01b03909116815260200160405180910390f35b3480156100ad57600080fd5b5061005b6100bc3660046103d1565b610170565b3480156100cd57600080fd5b5061005b6100dc3660046103d1565b6101d5565b3480156100ed57600080fd5b5061005b6100fc3660046103d1565b600080546001600160a01b0319166001600160a01b0392909216919091179055565b34801561012a57600080fd5b50600154610085906001600160a01b031681565b61016e6101697f360894a13ba1a3210667c828492db98dca3e2076cc3735a920a3ca505d382bbc5490565b6102d3565b565b6001546001600160a01b031633146101c95760405162461bcd60e51b815260206004820152601760248201527621b0b63632b91034b9903737ba103a34329030b236b4b760491b60448201526064015b60405180910390fd5b6101d2816102f7565b50565b6001546001600160a01b031633146102295760405162461bcd60e51b815260206004820152601760248201527621b0b63632b91034b9903737ba103a34329030b236b4b760491b60448201526064016101c0565b6000546001600160a01b038281169116146102ae576040805162461bcd60e51b81526020600482015260248101919091527f4578706563746564206e65772061646d696e206279207468652063757272656e60448201527f742061646d696e206973206e6f74207468652070656e64696e672061646d696e60648201526084016101c0565b50600054600180546001600160a01b0319166001600160a01b03909216919091179055565b3660008037600080366000845af43d6000803e8080156102f2573d6000f35b3d6000fd5b61030081610337565b6040516001600160a01b038216907fbc7cd75a20ee27fd9adebab32041f755214dbc6bffa90cc0225b39da2e5c2d3b90600090a250565b6001600160a01b0381163b6103ad5760405162461bcd60e51b815260206004820152603660248201527f5570677261646561626c6550726f78793a206e657720696d706c656d656e74616044820152751d1a5bdb881a5cc81b9bdd08184818dbdb9d1c9858dd60521b60648201526084016101c0565b7f360894a13ba1a3210667c828492db98dca3e2076cc3735a920a3ca505d382bbc55565b6000602082840312156103e357600080fd5b81356001600160a01b03811681146103fa57600080fd5b939250505056fea2646970667358221220308b579d552b56bdb011ab6c59c88688dbb4696e806fd4fcf7214f484ce7f15664736f6c634300081b0033360894a13ba1a3210667c828492db98dca3e2076cc3735a920a3ca505d382bbc","linkReferences":{}},"methodIdentifiers":{"admin()":"f851a440","approveNewAdmin(address)":"a02fcc0a","pendingAdmin()":"26782247","proposeNewAdmin(address)":"a6376746","upgradeTo(address)":"3659cfe6"},"id":50}