{"abi":[{"type":"constructor","inputs":[{"name":"_owner","type":"address","internalType":"address"}],"stateMutability":"nonpayable"},{"type":"receive","stateMutability":"payable"},{"type":"function","name":"contractBalance","inputs":[],"outputs":[{"name":"","type":"uint256","internalType":"uint256"}],"stateMutability":"view"},{"type":"function","name":"owner","inputs":[],"outputs":[{"name":"","type":"address","internalType":"address"}],"stateMutability":"view"},{"type":"function","name":"partner","inputs":[],"outputs":[{"name":"","type":"address","internalType":"address"}],"stateMutability":"view"},{"type":"function","name":"setWithdrawPartner","inputs":[{"name":"_partner","type":"address","internalType":"address"}],"outputs":[],"stateMutability":"nonpayable"},{"type":"function","name":"withdraw","inputs":[],"outputs":[],"stateMutability":"nonpayable"}],"bytecode":{"object":"0x6080604052348015600f57600080fd5b50604051610333380380610333833981016040819052602c916050565b600180546001600160a01b0319166001600160a01b0392909216919091179055607e565b600060208284031215606157600080fd5b81516001600160a01b0381168114607757600080fd5b9392505050565b6102a68061008d6000396000f3fe60806040526004361061004e5760003560e01c80633ccfd60b1461005a5780634e1c5914146100715780638b7afe2e146100ae5780638da5cb5b146100ce578063be10862b1461010657600080fd5b3661005557005b600080fd5b34801561006657600080fd5b5061006f610126565b005b34801561007d57600080fd5b5061006f61008c3660046101f7565b600080546001600160a01b0319166001600160a01b0392909216919091179055565b3480156100ba57600080fd5b506040514781526020015b60405180910390f35b3480156100da57600080fd5b506001546100ee906001600160a01b031681565b6040516001600160a01b0390911681526020016100c5565b34801561011257600080fd5b506000546100ee906001600160a01b031681565b6000610133606447610227565b600080546040519293506001600160a01b031691839181818185875af1925050503d8060008114610180576040519150601f19603f3d011682016040523d82523d6000602084013e610185565b606091505b50506001546040516001600160a01b03909116915082156108fc029083906000818181858888f193505050501580156101c2573d6000803e3d6000fd5b5042600255600080546001600160a01b0316815260036020526040812080548392906101ef908490610249565b909155505050565b60006020828403121561020957600080fd5b81356001600160a01b038116811461022057600080fd5b9392505050565b60008261024457634e487b7160e01b600052601260045260246000fd5b500490565b8082018082111561026a57634e487b7160e01b600052601160045260246000fd5b9291505056fea264697066735822122074b1aa7b1b23ed65375be0ee0f9f35c0be22613d587da187f0f2011c0b10579764736f6c634300081b0033","linkReferences":{}},"methodIdentifiers":{"contractBalance()":"8b7afe2e","owner()":"8da5cb5b","partner()":"be10862b","setWithdrawPartner(address)":"4e1c5914","withdraw()":"3ccfd60b"},"id":35}