{"abi":[{"type":"constructor","inputs":[],"stateMutability":"nonpayable"},{"type":"function","name":"add_liquidity","inputs":[{"name":"token_address","type":"address","internalType":"address"},{"name":"amount","type":"uint256","internalType":"uint256"}],"outputs":[],"stateMutability":"nonpayable"},{"type":"function","name":"approve","inputs":[{"name":"spender","type":"address","internalType":"address"},{"name":"amount","type":"uint256","internalType":"uint256"}],"outputs":[],"stateMutability":"nonpayable"},{"type":"function","name":"balanceOf","inputs":[{"name":"token","type":"address","internalType":"address"},{"name":"account","type":"address","internalType":"address"}],"outputs":[{"name":"","type":"uint256","internalType":"uint256"}],"stateMutability":"view"},{"type":"function","name":"getSwapAmount","inputs":[{"name":"from","type":"address","internalType":"address"},{"name":"to","type":"address","internalType":"address"},{"name":"amount","type":"uint256","internalType":"uint256"}],"outputs":[{"name":"","type":"uint256","internalType":"uint256"}],"stateMutability":"view"},{"type":"function","name":"owner","inputs":[],"outputs":[{"name":"","type":"address","internalType":"address"}],"stateMutability":"view"},{"type":"function","name":"renounceOwnership","inputs":[],"outputs":[],"stateMutability":"nonpayable"},{"type":"function","name":"setTokens","inputs":[{"name":"_token1","type":"address","internalType":"address"},{"name":"_token2","type":"address","internalType":"address"}],"outputs":[],"stateMutability":"nonpayable"},{"type":"function","name":"swap","inputs":[{"name":"from","type":"address","internalType":"address"},{"name":"to","type":"address","internalType":"address"},{"name":"amount","type":"uint256","internalType":"uint256"}],"outputs":[],"stateMutability":"nonpayable"},{"type":"function","name":"token1","inputs":[],"outputs":[{"name":"","type":"address","internalType":"address"}],"stateMutability":"view"},{"type":"function","name":"token2","inputs":[],"outputs":[{"name":"","type":"address","internalType":"address"}],"stateMutability":"view"},{"type":"function","name":"transferOwnership","inputs":[{"name":"newOwner","type":"address","internalType":"address"}],"outputs":[],"stateMutability":"nonpayable"},{"type":"event","name":"OwnershipTransferred","inputs":[{"name":"previousOwner","type":"address","indexed":true,"internalType":"address"},{"name":"newOwner","type":"address","indexed":true,"internalType":"address"}],"anonymous":false}],"bytecode":{"object":"0x6080604052348015600f57600080fd5b50601733601b565b606b565b600080546001600160a01b038381166001600160a01b0319831681178455604051919092169283917f8be0079c531659141344cd1fd0a4f28419497f9722a3daafe3b4186f6b6457e09190a35050565b6109988061007a6000396000f3fe608060405234801561001057600080fd5b50600436106100a95760003560e01c80638da5cb5b116100715780638da5cb5b1461012f578063cbc7854e14610140578063d21220a714610153578063df791e5014610166578063f2fde38b14610179578063f7888aec1461018c57600080fd5b8063095ea7b3146100ae57806325be124e146100c3578063264e8893146100f3578063635bc0c214610106578063715018a614610127575b600080fd5b6100c16100bc366004610800565b61019f565b005b6002546100d6906001600160a01b031681565b6040516001600160a01b0390911681526020015b60405180910390f35b6100c1610101366004610800565b61026f565b61011961011436600461082a565b6102ef565b6040519081526020016100ea565b6100c16103de565b6000546001600160a01b03166100d6565b6100c161014e366004610867565b6103f2565b6001546100d6906001600160a01b031681565b6100c161017436600461082a565b610428565b6100c161018736600461089a565b61064a565b61011961019a366004610867565b6106c3565b60015460405163e1f21c6760e01b81526001600160a01b039091169063e1f21c67906101d3903390869086906004016108b5565b600060405180830381600087803b1580156101ed57600080fd5b505af1158015610201573d6000803e3d6000fd5b505060025460405163e1f21c6760e01b81526001600160a01b03909116925063e1f21c679150610239903390869086906004016108b5565b600060405180830381600087803b15801561025357600080fd5b505af1158015610267573d6000803e3d6000fd5b505050505050565b61027761073a565b6040516323b872dd60e01b81526001600160a01b038316906323b872dd906102a7903390309086906004016108b5565b6020604051808303816000875af11580156102c6573d6000803e3d6000fd5b505050506040513d601f19601f820116820180604052508101906102ea91906108d9565b505050565b6040516370a0823160e01b81523060048201526000906001600160a01b038516906370a0823190602401602060405180830381865afa158015610336573d6000803e3d6000fd5b505050506040513d601f19601f8201168201806040525081019061035a9190610902565b6040516370a0823160e01b81523060048201526001600160a01b038516906370a0823190602401602060405180830381865afa15801561039e573d6000803e3d6000fd5b505050506040513d601f19601f820116820180604052508101906103c29190610902565b6103cc908461091b565b6103d69190610940565b949350505050565b6103e661073a565b6103f06000610794565b565b6103fa61073a565b600180546001600160a01b039384166001600160a01b03199182161790915560028054929093169116179055565b6040516370a0823160e01b815233600482015281906001600160a01b038516906370a0823190602401602060405180830381865afa15801561046e573d6000803e3d6000fd5b505050506040513d601f19601f820116820180604052508101906104929190610902565b10156104da5760405162461bcd60e51b815260206004820152601260248201527104e6f7420656e6f75676820746f20737761760741b60448201526064015b60405180910390fd5b60006104e78484846102ef565b6040516323b872dd60e01b81529091506001600160a01b038516906323b872dd9061051a903390309087906004016108b5565b6020604051808303816000875af1158015610539573d6000803e3d6000fd5b505050506040513d601f19601f8201168201806040525081019061055d91906108d9565b5060405163095ea7b360e01b8152306004820152602481018290526001600160a01b0384169063095ea7b3906044016020604051808303816000875af11580156105ab573d6000803e3d6000fd5b505050506040513d601f19601f820116820180604052508101906105cf91906108d9565b506040516323b872dd60e01b81526001600160a01b038416906323b872dd90610600903090339086906004016108b5565b6020604051808303816000875af115801561061f573d6000803e3d6000fd5b505050506040513d601f19601f8201168201806040525081019061064391906108d9565b5050505050565b61065261073a565b6001600160a01b0381166106b75760405162461bcd60e51b815260206004820152602660248201527f4f776e61626c653a206e6577206f776e657220697320746865207a65726f206160448201526564647265737360d01b60648201526084016104d1565b6106c081610794565b50565b6040516370a0823160e01b81526001600160a01b038281166004830152600091908416906370a0823190602401602060405180830381865afa15801561070d573d6000803e3d6000fd5b505050506040513d601f19601f820116820180604052508101906107319190610902565b90505b92915050565b6000546001600160a01b031633146103f05760405162461bcd60e51b815260206004820181905260248201527f4f776e61626c653a2063616c6c6572206973206e6f7420746865206f776e657260448201526064016104d1565b600080546001600160a01b038381166001600160a01b0319831681178455604051919092169283917f8be0079c531659141344cd1fd0a4f28419497f9722a3daafe3b4186f6b6457e09190a35050565b80356001600160a01b03811681146107fb57600080fd5b919050565b6000806040838503121561081357600080fd5b61081c836107e4565b946020939093013593505050565b60008060006060848603121561083f57600080fd5b610848846107e4565b9250610856602085016107e4565b929592945050506040919091013590565b6000806040838503121561087a57600080fd5b610883836107e4565b9150610891602084016107e4565b90509250929050565b6000602082840312156108ac57600080fd5b610731826107e4565b6001600160a01b039384168152919092166020820152604081019190915260600190565b6000602082840312156108eb57600080fd5b815180151581146108fb57600080fd5b9392505050565b60006020828403121561091457600080fd5b5051919050565b808202811582820484141761073457634e487b7160e01b600052601160045260246000fd5b60008261095d57634e487b7160e01b600052601260045260246000fd5b50049056fea2646970667358221220dba49368673f233c7f9081a21f8bdce5ec67297cc31f8ce4d7df0f386c85633664736f6c634300081b0033","linkReferences":{}},"methodIdentifiers":{"add_liquidity(address,uint256)":"264e8893","approve(address,uint256)":"095ea7b3","balanceOf(address,address)":"f7888aec","getSwapAmount(address,address,uint256)":"635bc0c2","owner()":"8da5cb5b","renounceOwnership()":"715018a6","setTokens(address,address)":"cbc7854e","swap(address,address,uint256)":"df791e50","token1()":"d21220a7","token2()":"25be124e","transferOwnership(address)":"f2fde38b"},"id":36}