{"abi":[{"type":"function","name":"flipSwitch","inputs":[{"name":"_data","type":"bytes","internalType":"bytes"}],"outputs":[],"stateMutability":"nonpayable"},{"type":"function","name":"offSelector","inputs":[],"outputs":[{"name":"","type":"bytes4","internalType":"bytes4"}],"stateMutability":"view"},{"type":"function","name":"switchOn","inputs":[],"outputs":[{"name":"","type":"bool","internalType":"bool"}],"stateMutability":"view"},{"type":"function","name":"turnSwitchOff","inputs":[],"outputs":[],"stateMutability":"nonpayable"},{"type":"function","name":"turnSwitchOn","inputs":[],"outputs":[],"stateMutability":"nonpayable"}],"bytecode":{"object":"0x60806040526000805464ffffffff0019166420606e1500179055348015602457600080fd5b50610616806100346000396000f3fe608060405234801561001057600080fd5b50600436106100575760003560e01c806320606e151461005c57806330c13ade146100665780635a2cfa661461007957806376227e12146100a9578063f9f8f895146100b1575b600080fd5b6100646100ce565b005b6100646100743660046104a1565b61012e565b60005461008b90610100900460e01b81565b6040516001600160e01b031990911681526020015b60405180910390f35b610064610320565b6000546100be9060ff1681565b60405190151581526020016100a0565b3330146101225760405162461bcd60e51b815260206004820152601f60248201527f4f6e6c792074686520636f6e74726163742063616e2063616c6c20746869730060448201526064015b60405180910390fd5b6000805460ff19169055565b61013661046d565b60046044823761017060405180604001604052806013815260200172031b0b6363230ba309039b2b632b1ba37b91d1606d1b81525061037e565b805161017b906103c4565b6101a96040518060400160405280600d81526020016c037b33329b2b632b1ba37b91d1609d1b81525061037e565b6000546101c790610100900460e01b6001600160e01b0319166103c4565b600054815161010090910460e01b6001600160e01b0319161461023d5760405162461bcd60e51b815260206004820152602860248201527f43616e206f6e6c792063616c6c20746865207475726e4f666653776974636820604482015267333ab731ba34b7b760c11b6064820152608401610119565b610274604051806040016040528060168152602001750ccd8d2e0a6eed2e8c6d040c6c2d8d8cac840eed2e8d60531b81525061037e565b61027d82610409565b6000306001600160a01b031683604051610297919061057e565b6000604051808303816000865af19150503d80600081146102d4576040519150601f19603f3d011682016040523d82523d6000602084013e6102d9565b606091505b505090508061031b5760405162461bcd60e51b815260206004820152600e60248201526d0c6c2d8d840ccc2d2d8cac84074560931b6044820152606401610119565b505050565b33301461036f5760405162461bcd60e51b815260206004820152601f60248201527f4f6e6c792074686520636f6e74726163742063616e2063616c6c2074686973006044820152606401610119565b6000805460ff19166001179055565b6103c18160405160240161039291906105c6565b60408051601f198184030181529190526020810180516001600160e01b031663104c13eb60e21b179052610448565b50565b6103c1816040516024016103da91815260200190565b60408051601f198184030181529190526020810180516001600160e01b03166327b7cf8560e01b179052610448565b6103c18160405160240161041d91906105c6565b60408051601f198184030181529190526020810180516001600160e01b03166305f3bfab60e11b1790525b6103c18160006a636f6e736f6c652e6c6f679050600080835160208501845afa505050565b60405180602001604052806001906020820280368337509192915050565b634e487b7160e01b600052604160045260246000fd5b6000602082840312156104b357600080fd5b813567ffffffffffffffff8111156104ca57600080fd5b8201601f810184136104db57600080fd5b803567ffffffffffffffff8111156104f5576104f561048b565b604051601f8201601f19908116603f0116810167ffffffffffffffff811182821017156105245761052461048b565b60405281815282820160200186101561053c57600080fd5b81602084016020830137600091810160200191909152949350505050565b60005b8381101561057557818101518382015260200161055d565b50506000910152565b6000825161059081846020870161055a565b9190910192915050565b600081518084526105b281602086016020860161055a565b601f01601f19169290920160200192915050565b6020815260006105d9602083018461059a565b939250505056fea2646970667358221220fe049716a7c06e1d19daf47ec6682ef50f0889e701fb017071d99afa9fdfa16664736f6c634300081b0033","linkReferences":{}},"methodIdentifiers":{"flipSwitch(bytes)":"30c13ade","offSelector()":"5a2cfa66","switchOn()":"f9f8f895","turnSwitchOff()":"20606e15","turnSwitchOn()":"76227e12"},"id":53}