{"abi":[{"type":"constructor","inputs":[{"name":"wallet_","type":"address","internalType":"address"}],"stateMutability":"nonpayable"},{"type":"function","name":"balances","inputs":[{"name":"","type":"address","internalType":"address"}],"outputs":[{"name":"","type":"uint256","internalType":"uint256"}],"stateMutability":"view"},{"type":"function","name":"transfer","inputs":[{"name":"dest_","type":"address","internalType":"address"},{"name":"amount_","type":"uint256","internalType":"uint256"}],"outputs":[],"stateMutability":"nonpayable"},{"type":"error","name":"InsufficientBalance","inputs":[{"name":"current","type":"uint256","internalType":"uint256"},{"name":"required","type":"uint256","internalType":"uint256"}]}],"bytecode":{"object":"0x6080604052348015600f57600080fd5b506040516102eb3803806102eb833981016040819052602c91604d565b6001600160a01b03166000908152602081905260409020620f42409055607b565b600060208284031215605e57600080fd5b81516001600160a01b0381168114607457600080fd5b9392505050565b6102618061008a6000396000f3fe608060405234801561001057600080fd5b50600436106100365760003560e01c806327e235e31461003b578063a9059cbb1461006d575b600080fd5b61005b61004936600461019d565b60006020819052908152604090205481565b60405190815260200160405180910390f35b61008061007b3660046101bf565b610082565b005b3360009081526020819052604090205480821161015a5733600090815260208190526040812080548492906100b89084906101ff565b90915550506001600160a01b038316600090815260208190526040812080548492906100e5908490610218565b90915550506001600160a01b0383163b15610155576040516326341e2d60e21b8152600481018390526001600160a01b038416906398d078b490602401600060405180830381600087803b15801561013c57600080fd5b505af1158015610150573d6000803e3d6000fd5b505050505b505050565b60405163cf47918160e01b8152600481018290526024810183905260440160405180910390fd5b80356001600160a01b038116811461019857600080fd5b919050565b6000602082840312156101af57600080fd5b6101b882610181565b9392505050565b600080604083850312156101d257600080fd5b6101db83610181565b946020939093013593505050565b634e487b7160e01b600052601160045260246000fd5b81810381811115610212576102126101e9565b92915050565b80820180821115610212576102126101e956fea2646970667358221220a054b83e2665d4894e0420e185a48e1870eb24819c4f4becf2fe862839c441a164736f6c634300081b0033","linkReferences":{}},"methodIdentifiers":{"balances(address)":"27e235e3","transfer(address,uint256)":"a9059cbb"},"id":44}