{"abi":[{"type":"constructor","inputs":[],"stateMutability":"nonpayable"},{"type":"function","name":"coin","inputs":[],"outputs":[{"name":"","type":"address","internalType":"contract Coin"}],"stateMutability":"view"},{"type":"function","name":"requestDonation","inputs":[],"outputs":[{"name":"enoughBalance","type":"bool","internalType":"bool"}],"stateMutability":"nonpayable"},{"type":"function","name":"wallet","inputs":[],"outputs":[{"name":"","type":"address","internalType":"contract Wallet"}],"stateMutability":"view"}],"bytecode":{"object":"0x608060405234801561001057600080fd5b5060405161001d9061010d565b604051809103906000f080158015610039573d6000803e3d6000fd5b50600080546001600160a01b0319166001600160a01b039290921691821790556040516100659061011a565b6001600160a01b039091168152602001604051809103906000f080158015610091573d6000803e3d6000fd5b50600180546001600160a01b0319166001600160a01b039283169081179091556000546040516382e46b7560e01b81526004810192909252909116906382e46b7590602401600060405180830381600087803b1580156100f057600080fd5b505af1158015610104573d6000803e3d6000fd5b50505050610127565b6103d58061055b83390190565b6102eb8061093083390190565b610425806101366000396000f3fe608060405234801561001057600080fd5b50600436106100415760003560e01c806311df9995146100465780632514363814610076578063521eb2731461008e575b600080fd5b600154610059906001600160a01b031681565b6040516001600160a01b0390911681526020015b60405180910390f35b61007e6100a1565b604051901515815260200161006d565b600054610059906001600160a01b031681565b60008054604051637c1b57e760e11b81523360048201526001600160a01b039091169063f836afce90602401600060405180830381600087803b1580156100e757600080fd5b505af19250505080156100f8575060015b610214573d808015610126576040519150601f19603f3d011682016040523d82523d6000602084013e61012b565b606091505b50805160208083019190912060408051600481526024810190915291820180516001600160e01b031663569d45cf60e11b1781529151909120036101ef5761018a6040518060a00160405280606f8152602001610381606f913961023b565b600054604051631c8170cb60e31b81523360048201526001600160a01b039091169063e40b865890602401600060405180830381600087803b1580156101cf57600080fd5b505af11580156101e3573d6000803e3d6000fd5b50505050600091505090565b61021060405180608001604052806053815260200161032e6053913961023b565b5090565b6102356040518060600160405280603981526020016102f56039913961023b565b50600190565b61027e8160405160240161024f91906102a6565b60408051601f198184030181529190526020810180516001600160e01b031663104c13eb60e21b179052610281565b50565b61027e8160006a636f6e736f6c652e6c6f679050600080835160208501845afa505050565b602081526000825180602084015260005b818110156102d457602081860181015160408684010152016102b7565b506000604082850101526040601f19601f8301168401019150509291505056fe7472792077616c6c65742e646f6e6174653130286d73672e73656e64657229207375636365656465642c2072657475726e696e6720747275656b656363616b323536286162692e656e636f6465576974685369676e617475726528224e6f74456e6f75676842616c616e63652829222929203d3d206b656363616b32353628657272292069732066616c73656b656363616b323536286162692e656e636f6465576974685369676e617475726528224e6f74456e6f75676842616c616e63652829222929203d3d206b656363616b323536286572722920697320747275652c20676f696e6720696e20746869732069662073746174656d6d656e74a264697066735822122035f4c8af8e06c2b3e73dced9215158370843bfa34958b00eb90036bbb58b619a64736f6c634300081b00336080604052348015600f57600080fd5b50600080546001600160a01b031916331790556103a4806100316000396000f3fe608060405234801561001057600080fd5b50600436106100575760003560e01c806311df99951461005c57806382e46b751461008b5780638da5cb5b146100a0578063e40b8658146100b3578063f836afce146100c6575b600080fd5b60015461006f906001600160a01b031681565b6040516001600160a01b03909116815260200160405180910390f35b61009e610099366004610331565b6100d9565b005b60005461006f906001600160a01b031681565b61009e6100c1366004610331565b610126565b61009e6100d4366004610331565b610229565b6000546001600160a01b0316331461010457604051635fc483c560e01b815260040160405180910390fd5b600180546001600160a01b0319166001600160a01b0392909216919091179055565b6000546001600160a01b0316331461015157604051635fc483c560e01b815260040160405180910390fd5b6001546040516327e235e360e01b81523060048201526001600160a01b039091169063a9059cbb90839083906327e235e390602401602060405180830381865afa1580156101a3573d6000803e3d6000fd5b505050506040513d601f19601f820116820180604052508101906101c79190610355565b6040516001600160e01b031960e085901b1681526001600160a01b03909216600483015260248201526044015b600060405180830381600087803b15801561020e57600080fd5b505af1158015610222573d6000803e3d6000fd5b5050505050565b6000546001600160a01b0316331461025457604051635fc483c560e01b815260040160405180910390fd5b6001546040516327e235e360e01b8152306004820152600a916001600160a01b0316906327e235e390602401602060405180830381865afa15801561029d573d6000803e3d6000fd5b505050506040513d601f19601f820116820180604052508101906102c19190610355565b10156102e05760405163569d45cf60e11b815260040160405180910390fd5b60015460405163a9059cbb60e01b81526001600160a01b038381166004830152600a60248301529091169063a9059cbb906044016101f4565b50565b6001600160a01b038116811461031957600080fd5b60006020828403121561034357600080fd5b813561034e8161031c565b9392505050565b60006020828403121561036757600080fd5b505191905056fea2646970667358221220f4363fbab88d68c26d8fc4386769babc442aa26b3ef170f219829e9fc2a6ba6764736f6c634300081b00336080604052348015600f57600080fd5b506040516102eb3803806102eb833981016040819052602c91604d565b6001600160a01b03166000908152602081905260409020620f42409055607b565b600060208284031215605e57600080fd5b81516001600160a01b0381168114607457600080fd5b9392505050565b6102618061008a6000396000f3fe608060405234801561001057600080fd5b50600436106100365760003560e01c806327e235e31461003b578063a9059cbb1461006d575b600080fd5b61005b61004936600461019d565b60006020819052908152604090205481565b60405190815260200160405180910390f35b61008061007b3660046101bf565b610082565b005b3360009081526020819052604090205480821161015a5733600090815260208190526040812080548492906100b89084906101ff565b90915550506001600160a01b038316600090815260208190526040812080548492906100e5908490610218565b90915550506001600160a01b0383163b15610155576040516326341e2d60e21b8152600481018390526001600160a01b038416906398d078b490602401600060405180830381600087803b15801561013c57600080fd5b505af1158015610150573d6000803e3d6000fd5b505050505b505050565b60405163cf47918160e01b8152600481018290526024810183905260440160405180910390fd5b80356001600160a01b038116811461019857600080fd5b919050565b6000602082840312156101af57600080fd5b6101b882610181565b9392505050565b600080604083850312156101d257600080fd5b6101db83610181565b946020939093013593505050565b634e487b7160e01b600052601160045260246000fd5b81810381811115610212576102126101e9565b92915050565b80820180821115610212576102126101e956fea2646970667358221220a054b83e2665d4894e0420e185a48e1870eb24819c4f4becf2fe862839c441a164736f6c634300081b0033","linkReferences":{}},"methodIdentifiers":{"coin()":"11df9995","requestDonation()":"25143638","wallet()":"521eb273"},"id":44}