{"abi":[{"type":"constructor","inputs":[],"stateMutability":"nonpayable"},{"type":"function","name":"coin","inputs":[],"outputs":[{"name":"","type":"address","internalType":"contract Coin"}],"stateMutability":"view"},{"type":"function","name":"donate10","inputs":[{"name":"dest_","type":"address","internalType":"address"}],"outputs":[],"stateMutability":"nonpayable"},{"type":"function","name":"owner","inputs":[],"outputs":[{"name":"","type":"address","internalType":"address"}],"stateMutability":"view"},{"type":"function","name":"setCoin","inputs":[{"name":"coin_","type":"address","internalType":"contract Coin"}],"outputs":[],"stateMutability":"nonpayable"},{"type":"function","name":"transferRemainder","inputs":[{"name":"dest_","type":"address","internalType":"address"}],"outputs":[],"stateMutability":"nonpayable"},{"type":"error","name":"NotEnoughBalance","inputs":[]},{"type":"error","name":"OnlyOwner","inputs":[]}],"bytecode":{"object":"0x6080604052348015600f57600080fd5b50600080546001600160a01b031916331790556103a4806100316000396000f3fe608060405234801561001057600080fd5b50600436106100575760003560e01c806311df99951461005c57806382e46b751461008b5780638da5cb5b146100a0578063e40b8658146100b3578063f836afce146100c6575b600080fd5b60015461006f906001600160a01b031681565b6040516001600160a01b03909116815260200160405180910390f35b61009e610099366004610331565b6100d9565b005b60005461006f906001600160a01b031681565b61009e6100c1366004610331565b610126565b61009e6100d4366004610331565b610229565b6000546001600160a01b0316331461010457604051635fc483c560e01b815260040160405180910390fd5b600180546001600160a01b0319166001600160a01b0392909216919091179055565b6000546001600160a01b0316331461015157604051635fc483c560e01b815260040160405180910390fd5b6001546040516327e235e360e01b81523060048201526001600160a01b039091169063a9059cbb90839083906327e235e390602401602060405180830381865afa1580156101a3573d6000803e3d6000fd5b505050506040513d601f19601f820116820180604052508101906101c79190610355565b6040516001600160e01b031960e085901b1681526001600160a01b03909216600483015260248201526044015b600060405180830381600087803b15801561020e57600080fd5b505af1158015610222573d6000803e3d6000fd5b5050505050565b6000546001600160a01b0316331461025457604051635fc483c560e01b815260040160405180910390fd5b6001546040516327e235e360e01b8152306004820152600a916001600160a01b0316906327e235e390602401602060405180830381865afa15801561029d573d6000803e3d6000fd5b505050506040513d601f19601f820116820180604052508101906102c19190610355565b10156102e05760405163569d45cf60e11b815260040160405180910390fd5b60015460405163a9059cbb60e01b81526001600160a01b038381166004830152600a60248301529091169063a9059cbb906044016101f4565b50565b6001600160a01b038116811461031957600080fd5b60006020828403121561034357600080fd5b813561034e8161031c565b9392505050565b60006020828403121561036757600080fd5b505191905056fea2646970667358221220f4363fbab88d68c26d8fc4386769babc442aa26b3ef170f219829e9fc2a6ba6764736f6c634300081b0033","linkReferences":{}},"methodIdentifiers":{"coin()":"11df9995","donate10(address)":"f836afce","owner()":"8da5cb5b","setCoin(address)":"82e46b75","transferRemainder(address)":"e40b8658"},"id":44}