{"abi":[{"type":"function","name":"floor","inputs":[],"outputs":[{"name":"","type":"uint256","internalType":"uint256"}],"stateMutability":"view"},{"type":"function","name":"goTo","inputs":[{"name":"_floor","type":"uint256","internalType":"uint256"}],"outputs":[],"stateMutability":"nonpayable"},{"type":"function","name":"top","inputs":[],"outputs":[{"name":"","type":"bool","internalType":"bool"}],"stateMutability":"view"}],"bytecode":{"object":"0x6080604052348015600f57600080fd5b506101fa8061001f6000396000f3fe608060405234801561001057600080fd5b50600436106100415760003560e01c80634069536314610046578063ed9a713414610062578063fe6dcdba14610077575b600080fd5b61004f60015481565b6040519081526020015b60405180910390f35b610075610070366004610182565b610094565b005b6000546100849060ff1681565b6040519015158152602001610059565b604051632fcd25e560e11b81526004810182905233908190635f9a4bca906024016020604051808303816000875af11580156100d4573d6000803e3d6000fd5b505050506040513d601f19601f820116820180604052508101906100f8919061019b565b61017e576001829055604051632fcd25e560e11b8152600481018390526001600160a01b03821690635f9a4bca906024016020604051808303816000875af1158015610148573d6000803e3d6000fd5b505050506040513d601f19601f8201168201806040525081019061016c919061019b565b6000805460ff19169115159190911790555b5050565b60006020828403121561019457600080fd5b5035919050565b6000602082840312156101ad57600080fd5b815180151581146101bd57600080fd5b939250505056fea26469706673582212202a8580f696d7919da9cc3a327380b59e10384ead23e8983ca40811c91b82540a64736f6c634300081b0033","linkReferences":{}},"methodIdentifiers":{"floor()":"40695363","goTo(uint256)":"ed9a7134","top()":"fe6dcdba"},"id":38}