{"abi":[{"type":"constructor","inputs":[],"stateMutability":"payable"},{"type":"receive","stateMutability":"payable"},{"type":"function","name":"_king","inputs":[],"outputs":[{"name":"","type":"address","internalType":"address"}],"stateMutability":"view"},{"type":"function","name":"owner","inputs":[],"outputs":[{"name":"","type":"address","internalType":"address"}],"stateMutability":"view"},{"type":"function","name":"prize","inputs":[],"outputs":[{"name":"","type":"uint256","internalType":"uint256"}],"stateMutability":"view"}],"bytecode":{"object":"0x6080604052600280546001600160a01b0319908116339081179092556000805490911690911790553460015561016c8061003a6000396000f3fe6080604052600436106100385760003560e01c806329cc6d6f146100bb5780638da5cb5b146100f2578063e3ac5d261461011257600080fd5b366100b6576001543410158061005857506002546001600160a01b031633145b61006157600080fd5b600080546040516001600160a01b03909116913480156108fc02929091818181858888f1935050505015801561009b573d6000803e3d6000fd5b50600080546001600160a01b03191633179055346001819055005b600080fd5b3480156100c757600080fd5b506000546001600160a01b03165b6040516001600160a01b0390911681526020015b60405180910390f35b3480156100fe57600080fd5b506002546100d5906001600160a01b031681565b34801561011e57600080fd5b5061012860015481565b6040519081526020016100e956fea2646970667358221220c6aa9424d08a4384151dde04173d10674bed64165888f0c39f1ec77808f597c064736f6c634300081b0033","linkReferences":{}},"methodIdentifiers":{"_king()":"29cc6d6f","owner()":"8da5cb5b","prize()":"e3ac5d26"},"id":45}