{"abi":[{"type":"constructor","inputs":[{"name":"_password","type":"bytes32","internalType":"bytes32"}],"stateMutability":"nonpayable"},{"type":"function","name":"locked","inputs":[],"outputs":[{"name":"","type":"bool","internalType":"bool"}],"stateMutability":"view"},{"type":"function","name":"unlock","inputs":[{"name":"_password","type":"bytes32","internalType":"bytes32"}],"outputs":[],"stateMutability":"nonpayable"}],"bytecode":{"object":"0x6080604052348015600f57600080fd5b50604051610133380380610133833981016040819052602c916041565b6000805460ff19166001908117909155556059565b600060208284031215605257600080fd5b5051919050565b60cc806100676000396000f3fe6080604052348015600f57600080fd5b506004361060325760003560e01c8063cf309012146037578063ec9b5b3a146057575b600080fd5b60005460439060ff1681565b604051901515815260200160405180910390f35b60666062366004607e565b6068565b005b8060015403607b576000805460ff191690555b50565b600060208284031215608f57600080fd5b503591905056fea26469706673582212205761c43622fce03748177a5ab1f356afef7f7c91b8a63237a209c3afdba8581964736f6c634300081b0033","linkReferences":{}},"methodIdentifiers":{"locked()":"cf309012","unlock(bytes32)":"ec9b5b3a"},"id":55}