{"abi":[{"type":"constructor","inputs":[],"stateMutability":"nonpayable"},{"type":"receive","stateMutability":"payable"},{"type":"function","name":"contribute","inputs":[],"outputs":[],"stateMutability":"payable"},{"type":"function","name":"contributions","inputs":[{"name":"","type":"address","internalType":"address"}],"outputs":[{"name":"","type":"uint256","internalType":"uint256"}],"stateMutability":"view"},{"type":"function","name":"getContribution","inputs":[],"outputs":[{"name":"","type":"uint256","internalType":"uint256"}],"stateMutability":"view"},{"type":"function","name":"owner","inputs":[],"outputs":[{"name":"","type":"address","internalType":"address"}],"stateMutability":"view"},{"type":"function","name":"withdraw","inputs":[],"outputs":[],"stateMutability":"nonpayable"}],"bytecode":{"object":"0x6080604052348015600f57600080fd5b50600180546001600160a01b031916339081179091556000908152602081905260409020683635c9adc5dea0000090556102ea8061004e6000396000f3fe60806040526004361061004e5760003560e01c80633ccfd60b1461009657806342e94c90146100ad5780638da5cb5b146100ed578063d7bb99ba14610125578063f10fdf5c1461012d57600080fd5b366100915760003411801561007157503360009081526020819052604090205415155b61007a57600080fd5b600180546001600160a01b03191633908117909155005b600080fd5b3480156100a257600080fd5b506100ab61014f565b005b3480156100b957600080fd5b506100da6100c836600461025d565b60006020819052908152604090205481565b6040519081526020015b60405180910390f35b3480156100f957600080fd5b5060015461010d906001600160a01b031681565b6040516001600160a01b0390911681526020016100e4565b6100ab6101e9565b34801561013957600080fd5b50336000908152602081905260409020546100da565b6001546001600160a01b031633146101ad5760405162461bcd60e51b815260206004820152601760248201527f63616c6c6572206973206e6f7420746865206f776e6572000000000000000000604482015260640160405180910390fd5b6001546040516001600160a01b03909116904780156108fc02916000818181858888f193505050501580156101e6573d6000803e3d6000fd5b50565b66038d7ea4c6800034106101fc57600080fd5b336000908152602081905260408120805434929061021b90849061028d565b90915550506001546001600160a01b031660009081526020819052604080822054338352912054111561025b57600180546001600160a01b031916331790555b565b60006020828403121561026f57600080fd5b81356001600160a01b038116811461028657600080fd5b9392505050565b808201808211156102ae57634e487b7160e01b600052601160045260246000fd5b9291505056fea2646970667358221220ea0d6434da8d22630f2f8f2f82472a72361560d9721ef564058884e43880b6aa64736f6c634300081b0033","linkReferences":{}},"methodIdentifiers":{"contribute()":"d7bb99ba","contributions(address)":"42e94c90","getContribution()":"f10fdf5c","owner()":"8da5cb5b","withdraw()":"3ccfd60b"},"id":39}