{"abi":[{"type":"receive","stateMutability":"payable"},{"type":"function","name":"balanceOf","inputs":[{"name":"_who","type":"address","internalType":"address"}],"outputs":[{"name":"balance","type":"uint256","internalType":"uint256"}],"stateMutability":"view"},{"type":"function","name":"balances","inputs":[{"name":"","type":"address","internalType":"address"}],"outputs":[{"name":"","type":"uint256","internalType":"uint256"}],"stateMutability":"view"},{"type":"function","name":"donate","inputs":[{"name":"_to","type":"address","internalType":"address"}],"outputs":[],"stateMutability":"payable"},{"type":"function","name":"withdraw","inputs":[{"name":"_amount","type":"uint256","internalType":"uint256"}],"outputs":[],"stateMutability":"nonpayable"}],"bytecode":{"object":"0x608060405234801561001057600080fd5b5061023c806100206000396000f3fe6080604052600436106100425760003560e01c8062362a951461004e57806327e235e3146100635780632e1a7d4d1461009957806370a08231146100b957610049565b3661004957005b600080fd5b61006161005c3660046101b4565b6100d9565b005b34801561006f57600080fd5b5061008361007e3660046101b4565b6100f8565b60405161009091906101fd565b60405180910390f35b3480156100a557600080fd5b506100616100b43660046101e2565b61010a565b3480156100c557600080fd5b506100836100d43660046101b4565b610199565b6001600160a01b03166000908152602081905260409020805434019055565b60006020819052908152604090205481565b336000908152602081905260409020548111610196576000336001600160a01b031682604051610139906101fa565b60006040518083038185875af1925050503d8060008114610176576040519150601f19603f3d011682016040523d82523d6000602084013e61017b565b606091505b50503360009081526020819052604090208054849003905550505b50565b6001600160a01b031660009081526020819052604090205490565b6000602082840312156101c5578081fd5b81356001600160a01b03811681146101db578182fd5b9392505050565b6000602082840312156101f3578081fd5b5035919050565b90565b9081526020019056fea2646970667358221220f1109d56d7a3681682b145fe18dfe6f48346082cdedb4503109a486dcaf405eb64736f6c634300060c0033","linkReferences":{}},"methodIdentifiers":{"balanceOf(address)":"70a08231","balances(address)":"27e235e3","donate(address)":"00362a95","withdraw(uint256)":"2e1a7d4d"},"id":6}