{"abi":[{"type":"constructor","inputs":[],"stateMutability":"nonpayable"},{"type":"receive","stateMutability":"payable"},{"type":"function","name":"consecutiveWins","inputs":[],"outputs":[{"name":"","type":"uint256","internalType":"uint256"}],"stateMutability":"view"},{"type":"function","name":"flip","inputs":[{"name":"_guess","type":"bool","internalType":"bool"}],"outputs":[{"name":"","type":"bool","internalType":"bool"}],"stateMutability":"nonpayable"}],"bytecode":{"object":"0x6080604052600160ff1b600255348015601757600080fd5b50600080556101e28061002b6000396000f3fe60806040526004361061002d5760003560e01c80631d263f6714610039578063e6f334d71461006e57600080fd5b3661003457005b600080fd5b34801561004557600080fd5b50610059610054366004610119565b610092565b60405190151581526020015b60405180910390f35b34801561007a57600080fd5b5061008460005481565b604051908152602001610065565b6000806100a0600143610158565b4060001c905080600154036100b457600080fd5b60018190556002546000906100c99083610171565b90506000816001146100dc5760006100df565b60015b90508415158115150361010b576000805490806100fb83610193565b9091555060019695505050505050565b505060008080559392505050565b60006020828403121561012b57600080fd5b8135801515811461013b57600080fd5b9392505050565b634e487b7160e01b600052601160045260246000fd5b8181038181111561016b5761016b610142565b92915050565b60008261018e57634e487b7160e01b600052601260045260246000fd5b500490565b6000600182016101a5576101a5610142565b506001019056fea26469706673582212203fa3b7c19793e61b85a604cf4fad55ce85a4b514aa9667d559159eb0e984d8f964736f6c634300081b0033","linkReferences":{}},"methodIdentifiers":{"consecutiveWins()":"e6f334d7","flip(bool)":"1d263f67"},"id":31}