{"abi":[{"type":"constructor","inputs":[{"name":"recipient","type":"address","internalType":"address"}],"stateMutability":"nonpayable"},{"type":"function","name":"setUnderlying","inputs":[{"name":"latestToken","type":"address","internalType":"address"}],"outputs":[],"stateMutability":"nonpayable"},{"type":"function","name":"sweepToken","inputs":[{"name":"token","type":"address","internalType":"contract IERC20"}],"outputs":[],"stateMutability":"nonpayable"},{"type":"function","name":"sweptTokensRecipient","inputs":[],"outputs":[{"name":"","type":"address","internalType":"address"}],"stateMutability":"view"},{"type":"function","name":"underlying","inputs":[],"outputs":[{"name":"","type":"address","internalType":"contract IERC20"}],"stateMutability":"view"}],"bytecode":{"object":"0x6080604052348015600f57600080fd5b506040516103ab3803806103ab833981016040819052602c916050565b600080546001600160a01b0319166001600160a01b0392909216919091179055607e565b600060208284031215606157600080fd5b81516001600160a01b0381168114607757600080fd5b9392505050565b61031e8061008d6000396000f3fe608060405234801561001057600080fd5b506004361061004c5760003560e01c80631be19560146100515780633234a197146100665780636f307dc314610095578063bdb2321f146100a8575b600080fd5b61006461005f366004610289565b6100bb565b005b600054610079906001600160a01b031681565b6040516001600160a01b03909116815260200160405180910390f35b600154610079906001600160a01b031681565b6100646100b6366004610289565b610208565b6001546001600160a01b039081169082160361011e5760405162461bcd60e51b815260206004820152601f60248201527f43616e2774207472616e7366657220756e6465726c79696e6720746f6b656e0060448201526064015b60405180910390fd5b6000546040516370a0823160e01b81523060048201526001600160a01b038381169263a9059cbb9291169083906370a0823190602401602060405180830381865afa158015610171573d6000803e3d6000fd5b505050506040513d601f19601f8201168201806040525081019061019591906102ad565b6040516001600160e01b031960e085901b1681526001600160a01b03909216600483015260248201526044016020604051808303816000875af11580156101e0573d6000803e3d6000fd5b505050506040513d601f19601f8201168201806040525081019061020491906102c6565b5050565b6001546001600160a01b03161561024f5760405162461bcd60e51b815260206004820152600b60248201526a105b1c9958591e481cd95d60aa1b6044820152606401610115565b600180546001600160a01b0319166001600160a01b0392909216919091179055565b6001600160a01b038116811461028657600080fd5b50565b60006020828403121561029b57600080fd5b81356102a681610271565b9392505050565b6000602082840312156102bf57600080fd5b5051919050565b6000602082840312156102d857600080fd5b815180151581146102a657600080fdfea2646970667358221220c9e4cb38a5224a430d54d4307073a848c04cf870be1d92c3338a8da51f68e90a64736f6c634300081b0033","linkReferences":{}},"methodIdentifiers":{"setUnderlying(address)":"bdb2321f","sweepToken(address)":"1be19560","sweptTokensRecipient()":"3234a197","underlying()":"6f307dc3"},"id":37}