{"abi":[{"type":"constructor","inputs":[{"name":"legacyToken","type":"address","internalType":"address"},{"name":"vaultAddress","type":"address","internalType":"address"},{"name":"fortaAddress","type":"address","internalType":"address"},{"name":"playerAddress","type":"address","internalType":"address"}],"stateMutability":"nonpayable"},{"type":"function","name":"allowance","inputs":[{"name":"owner","type":"address","internalType":"address"},{"name":"spender","type":"address","internalType":"address"}],"outputs":[{"name":"","type":"uint256","internalType":"uint256"}],"stateMutability":"view"},{"type":"function","name":"approve","inputs":[{"name":"spender","type":"address","internalType":"address"},{"name":"amount","type":"uint256","internalType":"uint256"}],"outputs":[{"name":"","type":"bool","internalType":"bool"}],"stateMutability":"nonpayable"},{"type":"function","name":"balanceOf","inputs":[{"name":"account","type":"address","internalType":"address"}],"outputs":[{"name":"","type":"uint256","internalType":"uint256"}],"stateMutability":"view"},{"type":"function","name":"cryptoVault","inputs":[],"outputs":[{"name":"","type":"address","internalType":"address"}],"stateMutability":"view"},{"type":"function","name":"decimals","inputs":[],"outputs":[{"name":"","type":"uint8","internalType":"uint8"}],"stateMutability":"view"},{"type":"function","name":"decreaseAllowance","inputs":[{"name":"spender","type":"address","internalType":"address"},{"name":"subtractedValue","type":"uint256","internalType":"uint256"}],"outputs":[{"name":"","type":"bool","internalType":"bool"}],"stateMutability":"nonpayable"},{"type":"function","name":"delegateTransfer","inputs":[{"name":"to","type":"address","internalType":"address"},{"name":"value","type":"uint256","internalType":"uint256"},{"name":"origSender","type":"address","internalType":"address"}],"outputs":[{"name":"","type":"bool","internalType":"bool"}],"stateMutability":"nonpayable"},{"type":"function","name":"delegatedFrom","inputs":[],"outputs":[{"name":"","type":"address","internalType":"address"}],"stateMutability":"view"},{"type":"function","name":"forta","inputs":[],"outputs":[{"name":"","type":"address","internalType":"contract Forta"}],"stateMutability":"view"},{"type":"function","name":"increaseAllowance","inputs":[{"name":"spender","type":"address","internalType":"address"},{"name":"addedValue","type":"uint256","internalType":"uint256"}],"outputs":[{"name":"","type":"bool","internalType":"bool"}],"stateMutability":"nonpayable"},{"type":"function","name":"name","inputs":[],"outputs":[{"name":"","type":"string","internalType":"string"}],"stateMutability":"view"},{"type":"function","name":"owner","inputs":[],"outputs":[{"name":"","type":"address","internalType":"address"}],"stateMutability":"view"},{"type":"function","name":"player","inputs":[],"outputs":[{"name":"","type":"address","internalType":"address"}],"stateMutability":"view"},{"type":"function","name":"renounceOwnership","inputs":[],"outputs":[],"stateMutability":"nonpayable"},{"type":"function","name":"symbol","inputs":[],"outputs":[{"name":"","type":"string","internalType":"string"}],"stateMutability":"view"},{"type":"function","name":"totalSupply","inputs":[],"outputs":[{"name":"","type":"uint256","internalType":"uint256"}],"stateMutability":"view"},{"type":"function","name":"transfer","inputs":[{"name":"to","type":"address","internalType":"address"},{"name":"amount","type":"uint256","internalType":"uint256"}],"outputs":[{"name":"","type":"bool","internalType":"bool"}],"stateMutability":"nonpayable"},{"type":"function","name":"transferFrom","inputs":[{"name":"from","type":"address","internalType":"address"},{"name":"to","type":"address","internalType":"address"},{"name":"amount","type":"uint256","internalType":"uint256"}],"outputs":[{"name":"","type":"bool","internalType":"bool"}],"stateMutability":"nonpayable"},{"type":"function","name":"transferOwnership","inputs":[{"name":"newOwner","type":"address","internalType":"address"}],"outputs":[],"stateMutability":"nonpayable"},{"type":"event","name":"Approval","inputs":[{"name":"owner","type":"address","indexed":true,"internalType":"address"},{"name":"spender","type":"address","indexed":true,"internalType":"address"},{"name":"value","type":"uint256","indexed":false,"internalType":"uint256"}],"anonymous":false},{"type":"event","name":"OwnershipTransferred","inputs":[{"name":"previousOwner","type":"address","indexed":true,"internalType":"address"},{"name":"newOwner","type":"address","indexed":true,"internalType":"address"}],"anonymous":false},{"type":"event","name":"Transfer","inputs":[{"name":"from","type":"address","indexed":true,"internalType":"address"},{"name":"to","type":"address","indexed":true,"internalType":"address"},{"name":"value","type":"uint256","indexed":false,"internalType":"uint256"}],"anonymous":false}],"bytecode":{"object":"0x608060405234801561001057600080fd5b5060405161122b38038061122b83398101604081905261002f91610254565b6040518060400160405280601581526020017f446f75626c65456e747279506f696e74546f6b656e00000000000000000000008152506040518060400160405280600381526020016211115560ea1b81525081600390816100909190610346565b50600461009d8282610346565b5050506100b66100b161011a60201b60201c565b61011e565b600880546001600160a01b038087166001600160a01b03199283161790925560098054858416908316179055600780548484169083161790556006805492861692909116821790556101119068056bc75e2d63100000610170565b5050505061042b565b3390565b600580546001600160a01b038381166001600160a01b0319831681179093556040519116919082907f8be0079c531659141344cd1fd0a4f28419497f9722a3daafe3b4186f6b6457e090600090a35050565b6001600160a01b0382166101ca5760405162461bcd60e51b815260206004820152601f60248201527f45524332303a206d696e7420746f20746865207a65726f206164647265737300604482015260640160405180910390fd5b80600260008282546101dc9190610404565b90915550506001600160a01b038216600081815260208181526040808320805486019055518481527fddf252ad1be2c89b69c2b068fc378daa952ba7f163c4a11628f55a4df523b3ef910160405180910390a35050565b505050565b80516001600160a01b038116811461024f57600080fd5b919050565b6000806000806080858703121561026a57600080fd5b61027385610238565b935061028160208601610238565b925061028f60408601610238565b915061029d60608601610238565b905092959194509250565b634e487b7160e01b600052604160045260246000fd5b600181811c908216806102d257607f821691505b6020821081036102f257634e487b7160e01b600052602260045260246000fd5b50919050565b601f82111561023357806000526020600020601f840160051c8101602085101561031f5750805b601f840160051c820191505b8181101561033f576000815560010161032b565b5050505050565b81516001600160401b0381111561035f5761035f6102a8565b6103738161036d84546102be565b846102f8565b6020601f8211600181146103a7576000831561038f5750848201515b600019600385901b1c1916600184901b17845561033f565b600084815260208120601f198516915b828110156103d757878501518255602094850194600190920191016103b7565b50848210156103f55786840151600019600387901b60f8161c191681555b50505050600190811b01905550565b8082018082111561042557634e487b7160e01b600052601160045260246000fd5b92915050565b610df18061043a6000396000f3fe608060405234801561001057600080fd5b50600436106101215760003560e01c8063715018a6116100ad578063a9059cbb11610071578063a9059cbb1461025e578063d444d8a014610271578063d8670e1f14610284578063dd62ed3e14610297578063f2fde38b146102aa57600080fd5b8063715018a6146102155780638da5cb5b1461021f57806395d89b41146102305780639cd1a12114610238578063a457c2d71461024b57600080fd5b806326fe9951116100f457806326fe99511461018c578063313ce567146101b757806339509351146101c657806348db5f89146101d957806370a08231146101ec57600080fd5b806306fdde0314610126578063095ea7b31461014457806318160ddd1461016757806323b872dd14610179575b600080fd5b61012e6102bd565b60405161013b9190610b7b565b60405180910390f35b610157610152366004610bde565b61034f565b604051901515815260200161013b565b6002545b60405190815260200161013b565b610157610187366004610c0a565b610369565b60085461019f906001600160a01b031681565b6040516001600160a01b03909116815260200161013b565b6040516012815260200161013b565b6101576101d4366004610bde565b61038d565b60075461019f906001600160a01b031681565b61016b6101fa366004610c4b565b6001600160a01b031660009081526020819052604090205490565b61021d6103af565b005b6005546001600160a01b031661019f565b61012e6103c3565b610157610246366004610c6f565b6103d2565b610157610259366004610bde565b610660565b61015761026c366004610bde565b6106db565b60065461019f906001600160a01b031681565b60095461019f906001600160a01b031681565b61016b6102a5366004610cb1565b6106e9565b61021d6102b8366004610c4b565b610714565b6060600380546102cc90610cea565b80601f01602080910402602001604051908101604052809291908181526020018280546102f890610cea565b80156103455780601f1061031a57610100808354040283529160200191610345565b820191906000526020600020905b81548152906001019060200180831161032857829003601f168201915b5050505050905090565b60003361035d81858561078d565b60019150505b92915050565b6000336103778582856108b1565b61038285858561092b565b506001949350505050565b60003361035d8185856103a083836106e9565b6103aa9190610d24565b61078d565b6103b7610acf565b6103c16000610b29565b565b6060600480546102cc90610cea565b6008546000906001600160a01b0316331461042a5760405162461bcd60e51b8152602060048201526013602482015272139bdd081b1959d858de4818dbdb9d1c9858dd606a1b60448201526064015b60405180910390fd5b600954600754604051634f0841e560e11b81526001600160a01b0391821660048201526000929190911690639e1083ca90602401602060405180830381865afa15801561047b573d6000803e3d6000fd5b505050506040513d601f19601f8201168201806040525081019061049f9190610d45565b6009546040516306e3817d60e51b81526001600160a01b0380841660048301529293506000929091169063dc702fa090602401602060405180830381865afa1580156104ef573d6000803e3d6000fd5b505050506040513d601f19601f820116820180604052508101906105139190610d62565b600954600754604051633e87f4a360e21b81529293506001600160a01b039182169263fa1fd28c9261054e9216906000903690600401610d7b565b600060405180830381600087803b15801561056857600080fd5b505af115801561057c573d6000803e3d6000fd5b5050505061058b84878761092b565b6009546040516306e3817d60e51b81526001600160a01b038481166004830152600195508392169063dc702fa090602401602060405180830381865afa1580156105d9573d6000803e3d6000fd5b505050506040513d601f19601f820116820180604052508101906105fd9190610d62565b11156106575760405162461bcd60e51b815260206004820152602360248201527f416c65727420686173206265656e207472696767657265642c20726576657274604482015262696e6760e81b6064820152608401610421565b50509392505050565b6000338161066e82866106e9565b9050838110156106ce5760405162461bcd60e51b815260206004820152602560248201527f45524332303a2064656372656173656420616c6c6f77616e63652062656c6f77604482015264207a65726f60d81b6064820152608401610421565b610382828686840361078d565b60003361035d81858561092b565b6001600160a01b03918216600090815260016020908152604080832093909416825291909152205490565b61071c610acf565b6001600160a01b0381166107815760405162461bcd60e51b815260206004820152602660248201527f4f776e61626c653a206e6577206f776e657220697320746865207a65726f206160448201526564647265737360d01b6064820152608401610421565b61078a81610b29565b50565b6001600160a01b0383166107ef5760405162461bcd60e51b8152602060048201526024808201527f45524332303a20617070726f76652066726f6d20746865207a65726f206164646044820152637265737360e01b6064820152608401610421565b6001600160a01b0382166108505760405162461bcd60e51b815260206004820152602260248201527f45524332303a20617070726f766520746f20746865207a65726f206164647265604482015261737360f01b6064820152608401610421565b6001600160a01b0383811660008181526001602090815260408083209487168084529482529182902085905590518481527f8c5be1e5ebec7d5bd14f71427d1e84f3dd0314c0f7b2291e5b200ac8c7c3b925910160405180910390a3505050565b60006108bd84846106e9565b9050600019811461092557818110156109185760405162461bcd60e51b815260206004820152601d60248201527f45524332303a20696e73756666696369656e7420616c6c6f77616e63650000006044820152606401610421565b610925848484840361078d565b50505050565b6001600160a01b03831661098f5760405162461bcd60e51b815260206004820152602560248201527f45524332303a207472616e736665722066726f6d20746865207a65726f206164604482015264647265737360d81b6064820152608401610421565b6001600160a01b0382166109f15760405162461bcd60e51b815260206004820152602360248201527f45524332303a207472616e7366657220746f20746865207a65726f206164647260448201526265737360e81b6064820152608401610421565b6001600160a01b03831660009081526020819052604090205481811015610a695760405162461bcd60e51b815260206004820152602660248201527f45524332303a207472616e7366657220616d6f756e7420657863656564732062604482015265616c616e636560d01b6064820152608401610421565b6001600160a01b03848116600081815260208181526040808320878703905593871680835291849020805487019055925185815290927fddf252ad1be2c89b69c2b068fc378daa952ba7f163c4a11628f55a4df523b3ef910160405180910390a3610925565b6005546001600160a01b031633146103c15760405162461bcd60e51b815260206004820181905260248201527f4f776e61626c653a2063616c6c6572206973206e6f7420746865206f776e65726044820152606401610421565b600580546001600160a01b038381166001600160a01b0319831681179093556040519116919082907f8be0079c531659141344cd1fd0a4f28419497f9722a3daafe3b4186f6b6457e090600090a35050565b602081526000825180602084015260005b81811015610ba95760208186018101516040868401015201610b8c565b506000604082850101526040601f19601f83011684010191505092915050565b6001600160a01b038116811461078a57600080fd5b60008060408385031215610bf157600080fd5b8235610bfc81610bc9565b946020939093013593505050565b600080600060608486031215610c1f57600080fd5b8335610c2a81610bc9565b92506020840135610c3a81610bc9565b929592945050506040919091013590565b600060208284031215610c5d57600080fd5b8135610c6881610bc9565b9392505050565b600080600060608486031215610c8457600080fd5b8335610c8f81610bc9565b9250602084013591506040840135610ca681610bc9565b809150509250925092565b60008060408385031215610cc457600080fd5b8235610ccf81610bc9565b91506020830135610cdf81610bc9565b809150509250929050565b600181811c90821680610cfe57607f821691505b602082108103610d1e57634e487b7160e01b600052602260045260246000fd5b50919050565b8082018082111561036357634e487b7160e01b600052601160045260246000fd5b600060208284031215610d5757600080fd5b8151610c6881610bc9565b600060208284031215610d7457600080fd5b5051919050565b6001600160a01b03841681526040602082018190528101829052818360608301376000818301606090810191909152601f909201601f191601019291505056fea26469706673582212209328a77ead8bf89356b756213507e89bbfe0eb54ce6dc2205d58fe5bcc7757fb64736f6c634300081b0033","linkReferences":{}},"methodIdentifiers":{"allowance(address,address)":"dd62ed3e","approve(address,uint256)":"095ea7b3","balanceOf(address)":"70a08231","cryptoVault()":"d444d8a0","decimals()":"313ce567","decreaseAllowance(address,uint256)":"a457c2d7","delegateTransfer(address,uint256,address)":"9cd1a121","delegatedFrom()":"26fe9951","forta()":"d8670e1f","increaseAllowance(address,uint256)":"39509351","name()":"06fdde03","owner()":"8da5cb5b","player()":"48db5f89","renounceOwnership()":"715018a6","symbol()":"95d89b41","totalSupply()":"18160ddd","transfer(address,uint256)":"a9059cbb","transferFrom(address,address,uint256)":"23b872dd","transferOwnership(address)":"f2fde38b"},"id":37}