{"abi":[{"type":"function","name":"botRaisedAlerts","inputs":[{"name":"","type":"address","internalType":"address"}],"outputs":[{"name":"","type":"uint256","internalType":"uint256"}],"stateMutability":"view"},{"type":"function","name":"notify","inputs":[{"name":"user","type":"address","internalType":"address"},{"name":"msgData","type":"bytes","internalType":"bytes"}],"outputs":[],"stateMutability":"nonpayable"},{"type":"function","name":"raiseAlert","inputs":[{"name":"user","type":"address","internalType":"address"}],"outputs":[],"stateMutability":"nonpayable"},{"type":"function","name":"setDetectionBot","inputs":[{"name":"detectionBotAddress","type":"address","internalType":"address"}],"outputs":[],"stateMutability":"nonpayable"},{"type":"function","name":"usersDetectionBots","inputs":[{"name":"","type":"address","internalType":"address"}],"outputs":[{"name":"","type":"address","internalType":"contract IDetectionBot"}],"stateMutability":"view"}],"bytecode":{"object":"0x6080604052348015600f57600080fd5b5061037b8061001f6000396000f3fe608060405234801561001057600080fd5b50600436106100575760003560e01c8063087a43c11461005c5780639e1083ca146100715780639e927c68146100b7578063dc702fa0146100f4578063fa1fd28c14610122575b600080fd5b61006f61006a366004610237565b610135565b005b61009a61007f366004610237565b6000602081905290815260409020546001600160a01b031681565b6040516001600160a01b0390911681526020015b60405180910390f35b61006f6100c5366004610237565b33600090815260208190526040902080546001600160a01b0319166001600160a01b0392909216919091179055565b610114610102366004610237565b60016020526000908152604090205481565b6040519081526020016100ae565b61006f610130366004610259565b610183565b6001600160a01b038181166000908152602081905260409020541633146101595750565b336000908152600160208190526040822080549192909161017b9084906102de565b909155505050565b6001600160a01b03838116600090815260208190526040902054166101a757505050565b6001600160a01b03808416600090815260208190526040908190205490516311055b5560e11b815291169063220ab6aa906101ea90869086908690600401610305565b600060405180830381600087803b15801561020457600080fd5b505af1925050508015610215575060015b50505050565b80356001600160a01b038116811461023257600080fd5b919050565b60006020828403121561024957600080fd5b6102528261021b565b9392505050565b60008060006040848603121561026e57600080fd5b6102778461021b565b9250602084013567ffffffffffffffff81111561029357600080fd5b8401601f810186136102a457600080fd5b803567ffffffffffffffff8111156102bb57600080fd5b8660208284010111156102cd57600080fd5b939660209190910195509293505050565b808201808211156102ff57634e487b7160e01b600052601160045260246000fd5b92915050565b6001600160a01b03841681526040602082018190528101829052818360608301376000818301606090810191909152601f909201601f191601019291505056fea26469706673582212200c9481c263464044028b2bf70eb47aed3c4f049963d89cae0c13683731fd4e0364736f6c634300081b0033","linkReferences":{}},"methodIdentifiers":{"botRaisedAlerts(address)":"dc702fa0","notify(address,bytes)":"fa1fd28c","raiseAlert(address)":"087a43c1","setDetectionBot(address)":"9e927c68","usersDetectionBots(address)":"9e1083ca"},"id":37}