{"abi":[{"type":"function","name":"allowance","inputs":[{"name":"owner","type":"address","internalType":"address"},{"name":"spender","type":"address","internalType":"address"}],"outputs":[{"name":"","type":"uint256","internalType":"uint256"}],"stateMutability":"view"},{"type":"function","name":"approve","inputs":[{"name":"spender","type":"address","internalType":"address"},{"name":"amount","type":"uint256","internalType":"uint256"}],"outputs":[{"name":"","type":"bool","internalType":"bool"}],"stateMutability":"nonpayable"},{"type":"function","name":"balanceOf","inputs":[{"name":"account","type":"address","internalType":"address"}],"outputs":[{"name":"","type":"uint256","internalType":"uint256"}],"stateMutability":"view"},{"type":"function","name":"decimals","inputs":[],"outputs":[{"name":"","type":"uint8","internalType":"uint8"}],"stateMutability":"view"},{"type":"function","name":"decreaseAllowance","inputs":[{"name":"spender","type":"address","internalType":"address"},{"name":"subtractedValue","type":"uint256","internalType":"uint256"}],"outputs":[{"name":"","type":"bool","internalType":"bool"}],"stateMutability":"nonpayable"},{"type":"function","name":"delegate","inputs":[],"outputs":[{"name":"","type":"address","internalType":"contract DelegateERC20"}],"stateMutability":"view"},{"type":"function","name":"delegateToNewContract","inputs":[{"name":"newContract","type":"address","internalType":"contract DelegateERC20"}],"outputs":[],"stateMutability":"nonpayable"},{"type":"function","name":"increaseAllowance","inputs":[{"name":"spender","type":"address","internalType":"address"},{"name":"addedValue","type":"uint256","internalType":"uint256"}],"outputs":[{"name":"","type":"bool","internalType":"bool"}],"stateMutability":"nonpayable"},{"type":"function","name":"mint","inputs":[{"name":"to","type":"address","internalType":"address"},{"name":"amount","type":"uint256","internalType":"uint256"}],"outputs":[],"stateMutability":"nonpayable"},{"type":"function","name":"name","inputs":[],"outputs":[{"name":"","type":"string","internalType":"string"}],"stateMutability":"view"},{"type":"function","name":"owner","inputs":[],"outputs":[{"name":"","type":"address","internalType":"address"}],"stateMutability":"view"},{"type":"function","name":"renounceOwnership","inputs":[],"outputs":[],"stateMutability":"nonpayable"},{"type":"function","name":"symbol","inputs":[],"outputs":[{"name":"","type":"string","internalType":"string"}],"stateMutability":"view"},{"type":"function","name":"totalSupply","inputs":[],"outputs":[{"name":"","type":"uint256","internalType":"uint256"}],"stateMutability":"view"},{"type":"function","name":"transfer","inputs":[{"name":"to","type":"address","internalType":"address"},{"name":"value","type":"uint256","internalType":"uint256"}],"outputs":[{"name":"","type":"bool","internalType":"bool"}],"stateMutability":"nonpayable"},{"type":"function","name":"transferFrom","inputs":[{"name":"from","type":"address","internalType":"address"},{"name":"to","type":"address","internalType":"address"},{"name":"amount","type":"uint256","internalType":"uint256"}],"outputs":[{"name":"","type":"bool","internalType":"bool"}],"stateMutability":"nonpayable"},{"type":"function","name":"transferOwnership","inputs":[{"name":"newOwner","type":"address","internalType":"address"}],"outputs":[],"stateMutability":"nonpayable"},{"type":"event","name":"Approval","inputs":[{"name":"owner","type":"address","indexed":true,"internalType":"address"},{"name":"spender","type":"address","indexed":true,"internalType":"address"},{"name":"value","type":"uint256","indexed":false,"internalType":"uint256"}],"anonymous":false},{"type":"event","name":"OwnershipTransferred","inputs":[{"name":"previousOwner","type":"address","indexed":true,"internalType":"address"},{"name":"newOwner","type":"address","indexed":true,"internalType":"address"}],"anonymous":false},{"type":"event","name":"Transfer","inputs":[{"name":"from","type":"address","indexed":true,"internalType":"address"},{"name":"to","type":"address","indexed":true,"internalType":"address"},{"name":"value","type":"uint256","indexed":false,"internalType":"uint256"}],"anonymous":false}],"bytecode":{"object":"0x608060405234801561001057600080fd5b506040518060400160405280600b81526020016a2632b3b0b1bcaa37b5b2b760a91b815250604051806040016040528060038152602001621311d560ea1b81525081600390816100609190610180565b50600461006d8282610180565b50505061008661008161008b60201b60201c565b61008f565b61023e565b3390565b600580546001600160a01b038381166001600160a01b0319831681179093556040519116919082907f8be0079c531659141344cd1fd0a4f28419497f9722a3daafe3b4186f6b6457e090600090a35050565b634e487b7160e01b600052604160045260246000fd5b600181811c9082168061010b57607f821691505b60208210810361012b57634e487b7160e01b600052602260045260246000fd5b50919050565b601f82111561017b57806000526020600020601f840160051c810160208510156101585750805b601f840160051c820191505b818110156101785760008155600101610164565b50505b505050565b81516001600160401b03811115610199576101996100e1565b6101ad816101a784546100f7565b84610131565b6020601f8211600181146101e157600083156101c95750848201515b600019600385901b1c1916600184901b178455610178565b600084815260208120601f198516915b8281101561021157878501518255602094850194600190920191016101f1565b508482101561022f5786840151600019600387901b60f8161c191681555b50505050600190811b01905550565b610c328061024d6000396000f3fe608060405234801561001057600080fd5b506004361061010b5760003560e01c806370a08231116100a2578063a457c2d711610071578063a457c2d71461021e578063a9059cbb14610231578063c89e436114610244578063dd62ed3e14610257578063f2fde38b1461026a57600080fd5b806370a08231146101c0578063715018a6146101e95780638da5cb5b146101f157806395d89b411461021657600080fd5b806323b872dd116100de57806323b872dd14610178578063313ce5671461018b578063395093511461019a57806340c10f19146101ad57600080fd5b806306fdde0314610110578063095ea7b31461012e57806318160ddd146101515780631d2d840014610163575b600080fd5b61011861027d565b6040516101259190610a52565b60405180910390f35b61014161013c366004610ab5565b61030f565b6040519015158152602001610125565b6002545b604051908152602001610125565b610176610171366004610ae1565b610329565b005b610141610186366004610b05565b610353565b60405160128152602001610125565b6101416101a8366004610ab5565b610377565b6101766101bb366004610ab5565b610399565b6101556101ce366004610ae1565b6001600160a01b031660009081526020819052604090205490565b6101766103af565b6005546001600160a01b03165b6040516001600160a01b039091168152602001610125565b6101186103c3565b61014161022c366004610ab5565b6103d2565b61014161023f366004610ab5565b610452565b6006546101fe906001600160a01b031681565b610155610265366004610b46565b6104f3565b610176610278366004610ae1565b61051e565b60606003805461028c90610b7f565b80601f01602080910402602001604051908101604052809291908181526020018280546102b890610b7f565b80156103055780601f106102da57610100808354040283529160200191610305565b820191906000526020600020905b8154815290600101906020018083116102e857829003601f168201915b5050505050905090565b60003361031d818585610597565b60019150505b92915050565b6103316106bb565b600680546001600160a01b0319166001600160a01b0392909216919091179055565b600033610361858285610715565b61036c85858561078f565b506001949350505050565b60003361031d81858561038a83836104f3565b6103949190610bb9565b610597565b6103a16106bb565b6103ab8282610933565b5050565b6103b76106bb565b6103c160006109f2565b565b60606004805461028c90610b7f565b600033816103e082866104f3565b9050838110156104455760405162461bcd60e51b815260206004820152602560248201527f45524332303a2064656372656173656420616c6c6f77616e63652062656c6f77604482015264207a65726f60d81b60648201526084015b60405180910390fd5b61036c8286868403610597565b6006546000906001600160a01b03166104765761046f8383610a44565b9050610323565b600654604051639cd1a12160e01b81526001600160a01b0385811660048301526024820185905233604483015290911690639cd1a121906064016020604051808303816000875af11580156104cf573d6000803e3d6000fd5b505050506040513d601f19601f8201168201806040525081019061046f9190610bda565b6001600160a01b03918216600090815260016020908152604080832093909416825291909152205490565b6105266106bb565b6001600160a01b03811661058b5760405162461bcd60e51b815260206004820152602660248201527f4f776e61626c653a206e6577206f776e657220697320746865207a65726f206160448201526564647265737360d01b606482015260840161043c565b610594816109f2565b50565b6001600160a01b0383166105f95760405162461bcd60e51b8152602060048201526024808201527f45524332303a20617070726f76652066726f6d20746865207a65726f206164646044820152637265737360e01b606482015260840161043c565b6001600160a01b03821661065a5760405162461bcd60e51b815260206004820152602260248201527f45524332303a20617070726f766520746f20746865207a65726f206164647265604482015261737360f01b606482015260840161043c565b6001600160a01b0383811660008181526001602090815260408083209487168084529482529182902085905590518481527f8c5be1e5ebec7d5bd14f71427d1e84f3dd0314c0f7b2291e5b200ac8c7c3b925910160405180910390a3505050565b6005546001600160a01b031633146103c15760405162461bcd60e51b815260206004820181905260248201527f4f776e61626c653a2063616c6c6572206973206e6f7420746865206f776e6572604482015260640161043c565b600061072184846104f3565b90506000198114610789578181101561077c5760405162461bcd60e51b815260206004820152601d60248201527f45524332303a20696e73756666696369656e7420616c6c6f77616e6365000000604482015260640161043c565b6107898484848403610597565b50505050565b6001600160a01b0383166107f35760405162461bcd60e51b815260206004820152602560248201527f45524332303a207472616e736665722066726f6d20746865207a65726f206164604482015264647265737360d81b606482015260840161043c565b6001600160a01b0382166108555760405162461bcd60e51b815260206004820152602360248201527f45524332303a207472616e7366657220746f20746865207a65726f206164647260448201526265737360e81b606482015260840161043c565b6001600160a01b038316600090815260208190526040902054818110156108cd5760405162461bcd60e51b815260206004820152602660248201527f45524332303a207472616e7366657220616d6f756e7420657863656564732062604482015265616c616e636560d01b606482015260840161043c565b6001600160a01b03848116600081815260208181526040808320878703905593871680835291849020805487019055925185815290927fddf252ad1be2c89b69c2b068fc378daa952ba7f163c4a11628f55a4df523b3ef910160405180910390a3610789565b6001600160a01b0382166109895760405162461bcd60e51b815260206004820152601f60248201527f45524332303a206d696e7420746f20746865207a65726f206164647265737300604482015260640161043c565b806002600082825461099b9190610bb9565b90915550506001600160a01b038216600081815260208181526040808320805486019055518481527fddf252ad1be2c89b69c2b068fc378daa952ba7f163c4a11628f55a4df523b3ef910160405180910390a35050565b600580546001600160a01b038381166001600160a01b0319831681179093556040519116919082907f8be0079c531659141344cd1fd0a4f28419497f9722a3daafe3b4186f6b6457e090600090a35050565b60003361031d81858561078f565b602081526000825180602084015260005b81811015610a805760208186018101516040868401015201610a63565b506000604082850101526040601f19601f83011684010191505092915050565b6001600160a01b038116811461059457600080fd5b60008060408385031215610ac857600080fd5b8235610ad381610aa0565b946020939093013593505050565b600060208284031215610af357600080fd5b8135610afe81610aa0565b9392505050565b600080600060608486031215610b1a57600080fd5b8335610b2581610aa0565b92506020840135610b3581610aa0565b929592945050506040919091013590565b60008060408385031215610b5957600080fd5b8235610b6481610aa0565b91506020830135610b7481610aa0565b809150509250929050565b600181811c90821680610b9357607f821691505b602082108103610bb357634e487b7160e01b600052602260045260246000fd5b50919050565b8082018082111561032357634e487b7160e01b600052601160045260246000fd5b600060208284031215610bec57600080fd5b81518015158114610afe57600080fdfea2646970667358221220c1489bfd9053d394529950584229bb7c567e961e0b6c3f7b5bbb46a4d71d84df64736f6c634300081b0033","linkReferences":{}},"methodIdentifiers":{"allowance(address,address)":"dd62ed3e","approve(address,uint256)":"095ea7b3","balanceOf(address)":"70a08231","decimals()":"313ce567","decreaseAllowance(address,uint256)":"a457c2d7","delegate()":"c89e4361","delegateToNewContract(address)":"1d2d8400","increaseAllowance(address,uint256)":"39509351","mint(address,uint256)":"40c10f19","name()":"06fdde03","owner()":"8da5cb5b","renounceOwnership()":"715018a6","symbol()":"95d89b41","totalSupply()":"18160ddd","transfer(address,uint256)":"a9059cbb","transferFrom(address,address,uint256)":"23b872dd","transferOwnership(address)":"f2fde38b"},"id":37}