{"abi":[{"type":"constructor","inputs":[],"stateMutability":"nonpayable"},{"type":"function","name":"setSolver","inputs":[{"name":"_solver","type":"address","internalType":"address"}],"outputs":[],"stateMutability":"nonpayable"},{"type":"function","name":"solver","inputs":[],"outputs":[{"name":"","type":"address","internalType":"address"}],"stateMutability":"view"}],"bytecode":{"object":"0x6080604052348015600f57600080fd5b5060f88061001e6000396000f3fe6080604052348015600f57600080fd5b506004361060325760003560e01c80631f87943314603757806349a7a26d146066575b600080fd5b606460423660046094565b600080546001600160a01b0319166001600160a01b0392909216919091179055565b005b6000546078906001600160a01b031681565b6040516001600160a01b03909116815260200160405180910390f35b60006020828403121560a557600080fd5b81356001600160a01b038116811460bb57600080fd5b939250505056fea26469706673582212204d1a89bdef7e2c551844c2a1fd5007f33ccc8694685589c59f7291d50ad45f7764736f6c634300081b0033","linkReferences":{}},"methodIdentifiers":{"setSolver(address)":"1f879433","solver()":"49a7a26d"},"id":46}