{"abi":[{"type":"function","name":"setTime","inputs":[{"name":"_time","type":"uint256","internalType":"uint256"}],"outputs":[],"stateMutability":"nonpayable"}],"bytecode":{"object":"0x6080604052348015600f57600080fd5b50608d80601d6000396000f3fe6080604052348015600f57600080fd5b506004361060285760003560e01c80633beb26c414602d575b600080fd5b603d6038366004603f565b600055565b005b600060208284031215605057600080fd5b503591905056fea26469706673582212203dd03f16b490bfef60dd0800ca5287a29e06c85a8c85cda15b5d62525a702de064736f6c634300081b0033","linkReferences":{}},"methodIdentifiers":{"setTime(uint256)":"3beb26c4"},"id":48}