{"abi":[{"type":"constructor","inputs":[{"name":"_timeZone1LibraryAddress","type":"address","internalType":"address"},{"name":"_timeZone2LibraryAddress","type":"address","internalType":"address"}],"stateMutability":"nonpayable"},{"type":"function","name":"owner","inputs":[],"outputs":[{"name":"","type":"address","internalType":"address"}],"stateMutability":"view"},{"type":"function","name":"setFirstTime","inputs":[{"name":"_timeStamp","type":"uint256","internalType":"uint256"}],"outputs":[],"stateMutability":"nonpayable"},{"type":"function","name":"setSecondTime","inputs":[{"name":"_timeStamp","type":"uint256","internalType":"uint256"}],"outputs":[],"stateMutability":"nonpayable"},{"type":"function","name":"timeZone1Library","inputs":[],"outputs":[{"name":"","type":"address","internalType":"address"}],"stateMutability":"view"},{"type":"function","name":"timeZone2Library","inputs":[],"outputs":[{"name":"","type":"address","internalType":"address"}],"stateMutability":"view"}],"bytecode":{"object":"0x6080604052348015600f57600080fd5b506040516102d33803806102d3833981016040819052602c916087565b600080546001600160a01b039384166001600160a01b031991821617909155600180549290931691811691909117909155600280549091163317905560b5565b80516001600160a01b0381168114608257600080fd5b919050565b60008060408385031215609957600080fd5b60a083606c565b915060ac60208401606c565b90509250929050565b61020f806100c46000396000f3fe608060405234801561001057600080fd5b50600436106100575760003560e01c806327d6974f1461005c5780633dc794221461008b5780635bda8fa41461009e5780638da5cb5b146100b3578063f1e02620146100c6575b600080fd5b60015461006f906001600160a01b031681565b6040516001600160a01b03909116815260200160405180910390f35b60005461006f906001600160a01b031681565b6100b16100ac366004610191565b6100d9565b005b60025461006f906001600160a01b031681565b6100b16100d4366004610191565b610163565b600154604051630efac9b160e21b6020820152602481018390526001600160a01b03909116906044015b60408051601f198184030181529082905261011d916101aa565b600060405180830381855af49150503d8060008114610158576040519150601f19603f3d011682016040523d82523d6000602084013e61015d565b606091505b50505050565b600054604051630efac9b160e21b6020820152602481018390526001600160a01b0390911690604401610103565b6000602082840312156101a357600080fd5b5035919050565b6000825160005b818110156101cb57602081860181015185830152016101b1565b50600092019182525091905056fea2646970667358221220a606a37a302b843de705b50bb44e9eec056df960b461a0f26d059d7b649faa9f64736f6c634300081b0033","linkReferences":{}},"methodIdentifiers":{"owner()":"8da5cb5b","setFirstTime(uint256)":"f1e02620","setSecondTime(uint256)":"5bda8fa4","timeZone1Library()":"3dc79422","timeZone2Library()":"27d6974f"},"id":48}