{"abi":[{"type":"function","name":"horsePower","inputs":[],"outputs":[{"name":"","type":"uint256","internalType":"uint256"}],"stateMutability":"view"},{"type":"function","name":"initialize","inputs":[],"outputs":[],"stateMutability":"nonpayable"},{"type":"function","name":"upgradeToAndCall","inputs":[{"name":"newImplementation","type":"address","internalType":"address"},{"name":"data","type":"bytes","internalType":"bytes"}],"outputs":[],"stateMutability":"payable"},{"type":"function","name":"upgrader","inputs":[],"outputs":[{"name":"","type":"address","internalType":"address"}],"stateMutability":"view"}],"bytecode":{"object":"0x608060405234801561001057600080fd5b506104d9806100206000396000f3fe60806040526004361061003f5760003560e01c80634f1ef28614610044578063564f6d71146100fc5780638129fc1c14610123578063af26974514610138575b600080fd5b6100fa6004803603604081101561005a57600080fd5b6001600160a01b03823516919081019060408101602082013564010000000081111561008557600080fd5b82018360208201111561009757600080fd5b803590602001918460018302840111640100000000831117156100b957600080fd5b91908080601f016020809104026020016040519081016040528093929190818152602001838380828437600092019190915250929550610169945050505050565b005b34801561010857600080fd5b5061011161017f565b60408051918252519081900360200190f35b34801561012f57600080fd5b506100fa610185565b34801561014457600080fd5b5061014d610246565b604080516001600160a01b039092168252519081900360200190f35b61017161025b565b61017b82826102b2565b5050565b60015481565b600054610100900460ff168061019e575061019e6103ac565b806101ac575060005460ff16155b6101e75760405162461bcd60e51b815260040180806020018281038252602e815260200180610449602e913960400191505060405180910390fd5b600054610100900460ff16158015610212576000805460ff1961ff0019909116610100171660011790555b6103e86001556000805462010000600160b01b0319163362010000021790558015610243576000805461ff00191690555b50565b6000546201000090046001600160a01b031681565b6000546201000090046001600160a01b031633146102b0576040805162461bcd60e51b815260206004820152600d60248201526c43616e2774207570677261646560981b604482015290519081900360640190fd5b565b6102bb826103bd565b80511561017b576000826001600160a01b0316826040518082805190602001908083835b602083106102fe5780518252601f1990920191602091820191016102df565b6001836020036101000a038019825116818451168082178552505050505050905001915050600060405180830381855af49150503d806000811461035e576040519150601f19603f3d011682016040523d82523d6000602084013e610363565b606091505b50509050806103a7576040805162461bcd60e51b815260206004820152600b60248201526a10d85b1b0819985a5b195960aa1b604482015290519081900360640190fd5b505050565b60006103b730610442565b15905090565b6103c681610442565b6104015760405162461bcd60e51b815260040180806020018281038252602d815260200180610477602d913960400191505060405180910390fd5b7f360894a13ba1a3210667c828492db98dca3e2076cc3735a920a3ca505d382bbc80546001600160a01b0319166001600160a01b0392909216919091179055565b3b15159056fe496e697469616c697a61626c653a20636f6e747261637420697320616c726561647920696e697469616c697a6564455243313936373a206e657720696d706c656d656e746174696f6e206973206e6f74206120636f6e7472616374a2646970667358221220aa0c4b6e04820ae2039c68c8d5c3f3bb536dd2657eb332d49c92e68e4c865c8f64736f6c634300060c0033","linkReferences":{}},"methodIdentifiers":{"horsePower()":"564f6d71","initialize()":"8129fc1c","upgradeToAndCall(address,bytes)":"4f1ef286","upgrader()":"af269745"},"id":5}