{"abi":[{"type":"function","name":"buy","inputs":[],"outputs":[],"stateMutability":"nonpayable"},{"type":"function","name":"isSold","inputs":[],"outputs":[{"name":"","type":"bool","internalType":"bool"}],"stateMutability":"view"},{"type":"function","name":"price","inputs":[],"outputs":[{"name":"","type":"uint256","internalType":"uint256"}],"stateMutability":"view"}],"bytecode":{"object":"0x60806040526064600055348015601457600080fd5b506101d4806100246000396000f3fe608060405234801561001057600080fd5b50600436106100415760003560e01c8063a035b1fe14610046578063a6f2ae3a14610062578063e852e7411461006c575b600080fd5b61004f60005481565b6040519081526020015b60405180910390f35b61006a610089565b005b6001546100799060ff1681565b6040519015158152602001610059565b6000339050600054816001600160a01b031663a035b1fe6040518163ffffffff1660e01b8152600401602060405180830381865afa1580156100cf573d6000803e3d6000fd5b505050506040513d601f19601f820116820180604052508101906100f39190610185565b10158015610104575060015460ff16155b15610182576001805460ff1916811790556040805163501ad8ff60e11b815290516001600160a01b0383169163a035b1fe9160048083019260209291908290030181865afa15801561015a573d6000803e3d6000fd5b505050506040513d601f19601f8201168201806040525081019061017e9190610185565b6000555b50565b60006020828403121561019757600080fd5b505191905056fea26469706673582212209e8a469ed5af3c8104de53ee0e1cf264e799558add42515346387ab2b3b822b764736f6c634300081b0033","linkReferences":{}},"methodIdentifiers":{"buy()":"a6f2ae3a","isSold()":"e852e741","price()":"a035b1fe"},"id":52}